:020000021000EC
:10C0000000400020C51802000119020003190200B7
:10C010000000000000000000000000000000000020
:10C0200000000000000000000000000005190200F0
:10C0300000000000000000000719020009190200BA
:10C040000B1902000B190200112102000B1902004A
:10C050000B190200000000000B1902000B1902006E
:10C060000B1902000B190200A11B02000B190200A0
:10C070000B1902000B1902000B1902000B19020028
:10C080000B190200B52702000B1902000B19020060
:10C090000B190200A9C101008DDA01000B19020081
:10C0A0000B1902000B190200000000000000000044
:10C0B0000000000000000000000000000000000080
:10C0C00010B5064C2378002B07D1054B002B02D06E
:10C0D000044800E000BF0123237010BD9828002011
:10C0E000000000002851020008B5084B002B03D0C7
:10C0F0000748084900E000BF07480368002B03D049
:10C10000064B002B00D0984708BDC0460000000039
:10C11000285102009C2800209828002000000000E0
:10C12000164B002B00D1144B9D46402292029A1AC6
:10C13000924600218B460F461348144A121A06F005
:10C14000EAFB0F4B002B00D098470E4B002B00D082
:10C1500098470020002104000D000D48002802D05F
:10C160000C4800E000BF06F079FB2000290005F034
:10C1700067FB06F05DFBC0460000080000400020A1
:10C18000000000003518020098280020282D00200B
:10C1900000000000000000002EDF704732DF704713
:10C1A00033DF70474CDF704708B5054B01201A7824
:10C1B00050401870034B1B68002B00D0984708BDF7
:10C1C000B8280020B428002038B50C4B051C1520D9
:10C1D0000C1C1A60FFF7E2FF00280ED11520291C65
:10C1E000FFF7DEFF002808D11520FFF7D5FF002854
:10C1F00003D10320211CFFF7D5FF38BDB428002050
:10C200007FDF704782DF7047A7DF7047A9DF704785
:10C21000AADF704700207047002070470020704759
:10C2200000207047002070470020704700207047B2
:10C23000F7B5041C0F1C6A468178224801F044FAC5
:10C2400000283DD162780C214A431F4B9A18927AFC
:10C25000530605D4022F03D0012F03D11B4D02E05A
:10C260001B4D00E01B4DA1781C2671431A4B6846FC
:10C270005918321C0023A847002813D1022F1FD0C1
:10C2800063780C225343104A4021D3189A7A6846A7
:10C290008A439A726178114B7143321C5918331CCE
:10C2A000A84701E0022F0BD023780C2253430C4AFD
:10C2B0006846D3189A7A0B4B9200D358211C9847A2
:10C2C000F7BDC04644290020BC28002019D7010032
:10C2D00099D7010015C20100C828002000290020BC
:10C2E00034290020C4440200F7B501904378182196
:10C2F0005943264A264F50184468002C0FD00C2072
:10C3000058433818807A45B2002D07DA450605D41F
:10C310000E1C0836A5B296198C5802E00024251C84
:10C32000261C0C225343FB181889311C2A1C231C81
:10C33000FFF76CFF0B280BD1019A311C53780C22AC
:10C340005343FB1818892A1C0123FFF75FFF0124C0
:10C35000002800D00F48012C17D1019D0C216B78CB
:10C360000D4A4B43FB181889FFF74EFF00280CD0ED
:10C370000A4B984208D0082806D0094B984203D0AF
:10C38000112801D0002000E00248FEBD1C29002039
:10C39000BC28002041800000FFFF000002300000A8
:10C3A0000430000008B5FFF79FFF08BDF0B589B065
:10C3B0006D460E350E23019000912B804B780C2199
:10C3C0004B43234A04A9D31818892A1C0323FFF7D7
:10C3D0001FFF002839D1009B182658781D4F704345
:10C3E000083004A938182A8806F07DFA00993C1C08
:10C3F0004B7800280DD10C225A4315498A18917A9E
:10C400000222114021D17343321CF81806F083FA3E
:10C410001BE05E43BE197268002A01D00E4F00E097
:10C420000E4F182673430322E2502A88E11808337E
:10C430004A60E01804A906F065FA009A019851785C
:10C4400038237143321C6118B847002009B0F0BD91
:10C45000BC2800201C29002099D7010019D7010011
:10C4600008B5FFF7A3FF08BD70B5031C4878182472
:10C470006043094D0E1C2818191C221C382301F09A
:10C48000CBF9002806D173785C432D196B68013312
:10C4900000D1686070BDC0461C29002008B5FFF7B8
:10C4A000E3FF08BDF0B51D1C434B161C1A6893B082
:10C4B00001900F1C002A7CD01898542879D803AB1F
:10C4C000FF22002469465A709A70DA701C700C764C
:10C4D0000B950A90A1B2394804AA01F0F5F800289A
:10C4E00009D1019804A9082206F0FDF9002802D11B
:10C4F00003AB9C7002E00134022CEBD103ACA278B8
:10C50000FF2A56D0032F0AD1189A06AB542A01D11C
:10C51000202200E040221A701A7803213BE0284BC9
:10C52000EB1A372B11D8274B002E04D101211868A4
:10C53000914008423DD0012191400A1C1968914365
:10C540001960202206AB1A7020E01F4BEB1A1B2B40
:10C5500009D806AB20221A70002363700CAB0B9332
:10C5600018230A9312E019482D1A172D21D83023C9
:10C570006A461376002363700123E370144B997AA3
:10C580000223194002D1182206F0C5F906AB022F8A
:10C590000CD11A7801210A4307481A7009AB079396
:10C5A00006A90368321C201C984702E01A78022171
:10C5B000F1E713B0F0BDC046342900204429002023
:10C5C000C828002040290020002900201C29002024
:10C5D000BC28002070B51C2444430E4E051C3019A5
:10C5E000002134190622113006F095F9201C002193
:10C5F000102206F090F9FF232374A37601235B42F7
:10C6000023830122044BAA40151C1A68AA431A600E
:10C6100070BDC046C82800204029002037B581B22F
:10C62000051C6A46074801F04FF8041E08D1684609
:10C63000542101F03BF9041E02D1281CFFF7CAFF68
:10C64000201C3EBD44290020F0B5061C85B0002802
:10C6500057D02D4B2D48012500246F421C605C7281
:10C660009C72211C0781C7720722857206F053F95C
:10C67000211C1822264806F04EF9201CFFF7AAFFBD
:10C68000244CFF23281C2370FFF7A4FF6A46542381
:10C6900067709380204C0223D380204B6846211C76
:10C6A000009300F0B1FF271C00282BD11C4A3378DF
:10C6B0001570151C002B1BD11C1CA1B2381C02AA22
:10C6C00001F002F8061E0CD11C22131C634315480E
:10C6D00002A9C018331C01F09FF8002804D02E7066
:10C6E00010E000232B700DE00134022C0AD0E4E7A7
:10C6F0006B46D9889B88201C594389B201F0D6F833
:10C7000000E0094805B0F0BD34290020BC28002015
:10C710001C290020B928002044290020A5C40100BC
:10C72000BB280020C82800200E800000F8B5174B59
:10C73000071C1B780D1C002B22D0002822D00029BA
:10C7400020D00B68002B1DD0114C2668002E1BD169
:10C75000201C08C00531052206F0D4F8207A2B7978
:10C76000012188430222A3721043042398432072BC
:10C77000E07901430A439A43E271301C3E7004E0C1
:10C78000044802E0044800E00448F8BDBB2800204B
:10C7900034290020088000000E8000000480000082
:10C7A000154B1B78002B22D000281ED000291CD04E
:10C7B0000378002B1BD1114B1B68002B17D042783C
:10C7C000002A16D10E4B9B7A012B12D02420184040
:10C7D00003D001230B70101C0CE05BB2002B02DABB
:10C7E00002230B7006E0087004E0064802E00648E9
:10C7F00000E006487047C046BB28002034290020CE
:10C80000BC2800200E80000008800000108000007E
:10C81000234BF0B51B78002B25D0002821D0002910
:10C820001FD00B68002B1CD08D68002D19D0037809
:10C83000002B18D11B4A1268002A14D01A481A1C5F
:10C8400010301C1C194DEE7AB3420ED1AD7AAE07F2
:10C850000BD501331C30022BF4D10C710A7300206C
:10C860001CE013481AE0134818E00D7BAA420AD2D4
:10C87000857AEE0707D4061C8F689500103EEE51AE
:10C880000D4DAB5401320D79AC42E2D2857AAE0740
:10C89000DFD40F68A500E8510134DAE7F0BDC046E7
:10C8A000BB28002034290020C8280020BC280020F4
:10C8B0000E80000008800000B9280020104B10B541
:10C8C0001B78002B19D0002815D00078002814D12F
:10C8D0000C4B1B68002B10D00B4B9A7E1C1CFF2AA4
:10C8E00001D0FFF79BFE36342378FF2B06D00120C2
:10C8F000FFF794FE02E0054800E0054810BDC04681
:10C90000BB28002034290020C82800200E80000009
:10C910000880000013B5041C81786A460B4800F0BB
:10C92000D3FE002810D160781C235843084A69467A
:10C9300010181A1C00F070FF064B68469A7A064BD6
:10C940009200D358211C984713BDC04644290020AB
:10C950000029002034290020D4440200F0B5C84A40
:10C960008FB01278FF23061C0393002A00D1B3E195
:10C97000C44A1168002900D1AEE104AD05AF6B7067
:10C98000AB70EB70031D7B602A233B813388002052
:10C990002870BD4C102B21D0A27AB188900707D502
:10C9A000BA48814200D141E12089884200D13DE16D
:10C9B000172B00D1A8E007D8132B50D0142B2BD065
:10C9C000112B00D088E10EE01C2B00D114E1522B7A
:10C9D00000D109E1182B00D07EE1E0E0A37AD9076D
:10C9E00000D528E178E10223111C9943A1721007B8
:10C9F00007D54BB2002B0BDA281C0021FFF718FCDF
:10CA000006E0A878FF2803D0FFF7E4FDFF23AB7012
:10CA10001023A3721223F0E0E37A9D4FFF2B13D172
:10CA2000F389398B994204D0B98E99420CD10123F4
:10CA300000E00023082103930A43DBB2E372A272F1
:10CA4000281CAB70FFF766FFE37A0021FF2B00D0B4
:10CA50009049B0883A1C0023FFF7D4FB3CE13B70BF
:10CA600004231A43E37AA272FF2B25D188498B7ED7
:10CA7000FF2B06D00B1C36331B780127FF2B29D147
:10CA800000E0002723781C207843022B09D0804A3D
:10CA9000FD2310188376211C0722103005F032FF89
:10CAA00003E07B4B1818FE23837603AB1F700398BB
:10CAB000C3B2AB70E3720BE0774816230E22083046
:10CAC00000213B7005F027FFA37A40221343A37295
:10CAD000002400E0714C00216B4B0B91DB7A1C228F
:10CAE00053436B4A0D91D3180C936A4B654A0893D4
:10CAF00009910A91B088043208ABFFF781FB002846
:10CB000000D0E9E0221C7AE05E480121437A8B43A1
:10CB1000437204239A431423A2723B70B379002B0F
:10CB200004D0E07AFFF77AFDB27968E0F37959072B
:10CB300064D5AB78FF2B61D008210A43F17AA27249
:10CB40008907C90F012906D11C225A43504882186F
:10CB5000907E88439076E27AFF2A4FD021784C4A23
:10CB60001C2602290CD05E439619301C0722103077
:10CB7000211C05F0C7FEB37E02229343B37609E081
:10CB800073434449D318498A1A1C19839B7E012197
:10CB90008B439376281C0121FFF74AFB2EE0B379E3
:10CBA000112B13D1130711D53B480E220830002159
:10CBB00005F0B1FE16233B70A37A6022134331487F
:10CBC000A372437A02221343437217E080235B422D
:10CBD0001A432C4915233B70A2728A7A304B92007B
:10CBE000D358281C984709E0264B281C9A7A2C4BCE
:10CBF0009200D35898476FE013233B7000222148DE
:10CC000005AC0368211C281C98472378122B63D19C
:10CC10001D48837A012B5FD0012383725B4203811D
:10CC2000C3720021072205F076FE55E0E17AA97073
:10CC300000216970BCE61123002169703B70B38844
:10CC4000B21D23810223A3720192111C201C072212
:10CC500005F058FE737DD80706D5124A5B08D35CF1
:10CC6000FF2B2DD003932BE0094E00271036019A9D
:10CC7000002A19D13289054B9A421CD103971FE033
:10CC8000BB28002034290020BC280020FFFF000022
:10CC9000C8280020002900201C2900204380000013
:10CCA000B4440200B9280020301C0199072205F085
:10CCB0001AFE0028E2D001371C36022F9ED0D6E79C
:10CCC000A27A03980821C3B20A43E372A272281C15
:10CCD000AB70FFF71FFE91E70FB0F0BD30B5002934
:10CCE00012D00A78002A11D10A4B1B68002B0DD0F4
:10CCF000FF23094C8B7025890523854207D14A7093
:10CD0000E37A8B70131C02E0044B00E0044B181C08
:10CD100030BDC04634290020BC2800200E80000011
:10CD2000088000004DDF704730B500238DB00D1C2A
:10CD3000141CC21AD27B69465A540133102BF8D105
:10CD4000002104A80D2205F0E6FD2B786A46D37772
:10CD50006B7868469377AB785377FFF7E3FF6B46C2
:10CD60002F331B7823706B462E331B7863706B4612
:10CD70002D331B78A3700DB030BD30B50378041C83
:10CD800085B00D1C0020022B16D1611C032201A8C6
:10CD900005F0B8FD211D032203A805F0B3FD281CF2
:10CDA00003A902AAFFF7C0FF01A802A9032205F008
:10CDB0009AFD43425841C0B205B030BD08B5064B9C
:10CDC000586980235B05421C04D0196989B206F0BA
:10CDD00045FA00E0586908BD0010001029DF7047CF
:10CDE00028DF704708B5034B1A78034B9200D358DD
:10CDF000984708BD94290020E444020037B50B1C75
:10CE0000074C89680C254D4324681978021C181CAE
:10CE10001B690094034C08302C59A04737BDC0460D
:10CE20009C2900208029002008B5104A142113787D
:10CE30004B43D318802218695205116904335A886C
:10CE400001389B888018C01889B206F007FA084A92
:10CE5000031C126801209A4207D300209A4204D191
:10CE6000044B186843425841C0B208BD4C29002009
:10CE7000782900207C29002008B5044B0822196875
:10CE800091431960FFF7AEFF08BDC046902900200E
:10CE9000094A08B5136819070AD4990702D5012170
:10CEA0000B431360054B02221A70FFF79BFF01E052
:10CEB000FFF7E2FF08BDC04690290020942900201A
:10CEC00008B5064B1B681A0705D4054B01221A70DA
:10CED000FFF788FF01E0FFF7CFFF08BD9029002092
:10CEE0009429002008B5002814D0112805D10A4B38
:10CEF000082219680A431A600CE0084B14211A78BA
:10CF000051435B18191DFFF779FF054B04221A7076
:10CF100000F096F808BDC046902900204C2900205A
:10CF20009529002008B5FFF759FFFFF7DBFF08BD83
:10CF3000F8B5134B14241A78802554436D051C1939
:10CF400004342F696288BFB2A088E36821690D4E5E
:10CF5000BA420DD92C69C018A4B2121B2C698018D2
:10CF60008918A2B29208FFF7DDFF2B699BB204E09B
:10CF7000C0189208FFF7D6FF63883360F8BDC0463B
:10CF80004C290020A829002038B50A4A80246405CD
:10CF9000236915689BB2013D5D43FFF70FFF2169CF
:10CFA000054B013889B241431A68281CFFF7BAFFC4
:10CFB00038BDC04678290020A429002070B5104A49
:10CFC0001421137880254B43D3181A89DC88043345
:10CFD000DB686D05A4182969E418201C89B206F0E5
:10CFE00081F90E1CFFF7EAFE2969013889B2414335
:10CFF000044B89191A68201CFFF794FF70BDC046C6
:10D000004C2900207C29002010B5FFF7D7FE802393
:10D010005B051C6919691A69431EA0B25843044B89
:10D0200089B21B6892B259439208FFF77BFF10BD8B
:10D030007829002008B5FFF7D3FEFFF753FF08BD9E
:10D04000F0B52B4B85B0187803284FD806F0FCF8C4
:10D05000020E114A274A00231360274A1360274B08
:10D060005B78002B42D000F0DFF83FE0FFF760FF75
:10D070003CE0234C01232268142601929A431F4B63
:10D08000226002921A78802756437F059E193369E1
:10D090003969181C89B2039306F0E0F8194B051C96
:10D0A000186003983969F3880138C01889B206F00E
:10D0B000D5F8854203D1029A0223134303E0019A73
:10D0C00003239A43131C23600F4B1A680F4B002A4B
:10D0D00003D121680222114200D000221A70FFF70A
:10D0E00081FE03E0074B1868FFF7A4FF05B0F0BD11
:10D0F00095290020A0290020A82900204C290020E3
:10D100009029002078290020A429002094290020BB
:10D11000F0B53F4A1421137885B04B43D318D86833
:10D120000C22424302903B48802582185489108982
:10D13000526860436D05821829690192DA881E6978
:10D1400003921F89344CD3199B1900930023236049
:10D1500089B2301C06F0C6F800290AD12B69039861
:10D160009BB2984208D00099019A914201D1002FB8
:10D1700002D0029B022B08D12969301C89B206F02B
:10D180006DF8264B186003233CE02969B81989B271
:10D1900006F0A8F8224B89081960009A019B8024A8
:10D1A000640529699A422CD089B2101C06F09AF8BD
:10D1B000002926D0019A0098216985B289B290B2DF
:10D1C00006F04CF82769061CB9B2281C06F046F890
:10D1D000B6B280B2864208D1019B00989AB283B25F
:10D1E000D31A0D499B080B600BE023692169281CA9
:10D1F00089B29CB206F076F889B2641A064AA4088D
:10D200001460022307480370FFF71AFF05B0F0BD52
:10D210004C290020802900207C290020782900202A
:10D22000A42900209529002008B50B4A1421137861
:10D230004B43D318D988094A1B791160032B08D0B6
:10D24000042B06D0012B06D1054A1370FFF7F8FE18
:10D2500001E0FFF75DFF08BD4C2900209C2900205C
:10D2600095290020F7B508AC2488114D01946E78FB
:10D270000424022E19D02C78A419012C00D9023CC8
:10D2800014277C432C196261221C20710C3281C945
:10D2900081C2E380074B01981B782081013600246E
:10D2A0006E70A34201D1FFF7BFFF201CFEBDC04638
:10D2B0004C2900209529002038B5124C14252178DE
:10D2C0000020694361180431FFF798FD21782A1C7A
:10D2D0004A430023A21801251371D380D56013613E
:10D2E000536113816278013A62704A19D2B2022AFC
:10D2F00001D0227000E02370034A1370FFF7A0FEF4
:10D3000038BDC0464C2900209529002008B5084B9F
:10D3100014211A784A439B181B79042B02D0FFF77B
:10D32000CBFF04E0034B01221A70FFF789FE08BD12
:10D330004C29002095290020F8B51F4D08242E689F
:10D34000344023D11D4A142113781D4F4B433F68AD
:10D35000D31880211869DA88490504339B88096944
:10D36000002F16D001388018C01889B205F076FF5A
:10D37000144B1B6883420CD1134B1C6001231E43CA
:10D38000124B2E601C70FFF72DFD13E0FFF774FDAC
:10D3900010E0FFF749FD002804D00B4B00221A6073
:10D3A000022202E0002F03D00322084B1A70EAE7A2
:10D3B000FFF7ACFFF8BDC046902900204C290020A3
:10D3C0007C29002078290020A4290020942900200D
:10D3D00008B5054B1B681A0702D4FFF797FF01E059
:10D3E000FFF74AFD08BDC0469029002038B5154D0D
:10D3F0002C68220723D4144B1A6801321A60134B8D
:10D4000004221B68002B04D1FFF70EFD002802D078
:10D4100002220F4B0CE00F4B1B68002B0CD001219C
:10D42000221C0A400A4B02D10C432C6000E003226C
:10D430001A70FFF7D7FC04E0FFF768FF01E0FFF781
:10D440001BFD38BD9029002078290020A429002048
:10D45000942900207C29002008B51E4B1B78022B44
:10D4600030D0032B19D0012B32D11B4B08211A6865
:10D470000A4222D1194B14211A784A439A18184BA0
:10D48000D1881B68CB1A9BB2D380002B02D1FFF747
:10D4900013FF1DE0FFF74CFD1AE00F4B08211A683F
:10D4A0000A420AD10F4B1A6801321A60FFF7BCFC1E
:10D4B000002804D1FFF72AFF0AE08A431A60FFF729
:10D4C000BFFD05E0084B1A78084B9200D3589847E7
:10D4D00008BDC04695290020902900204C29002035
:10D4E000A82900207829002094290020F84402006F
:10D4F00008B5024B1868FFF79DFD08BD782900208C
:10D5000008B5FFF75BFC80235B051A691969431EA8
:10D5100090B2584389B205F0A1FEFFF78BFD08BD1C
:10D5200038B5144C042523781A1CAA4321D00228AC
:10D530001DD003281DD1104A1268110717D40F49B6
:10D540000A6801320A60032A04D0022B0CD1FFF7CB
:10D5500049FC0EE00A4B14211A780D2051435B1848
:10D56000191DFFF74BFC2570FFF76AFD01E0FFF77F
:10D5700073FF38BD9529002090290020A0290020A4
:10D580004C290020174B10B5012200241C705C7040
:10D590001C71DC80DA601C615C611C811C765C8320
:10D5A0001A625C629C629C830F4B1C80FFF706FC36
:10D5B00080235B051A69831E90B258430B4B0422EB
:10D5C00018600B4B201C1C600A4B1C601C815C818A
:10D5D000094B1C70094B1C60094B1C60094B1A60FD
:10D5E00010BDC0464C2900208C290020982900201D
:10D5F000782900208029002095290020A0290020DA
:10D60000A8290020902900202B4BF7B51B680E1C81
:10D610000421041C08200B424DD0002C4AD0002EBF
:10D6200048D02268002A45D080277F053A69A38820
:10D6300092B2934201D907203DE00F2BFBD9E2883B
:10D64000002AF8D053431D490D685B190193FFF779
:10D65000B5FB3A69431E90B25843019A8242EAD818
:10D66000A3889907E7D1164A04201788012F22D0F2
:10D670000C20784313493760756026680A18556096
:10D6800046501381E088013750818022520558436B
:10D69000166911691469B2B28018013889B205F0AF
:10D6A0002BFEA4B24443054E054B651935601F801F
:10D6B000002000E00E20FEBD9029002098290020C7
:10D6C0008C29002080290020114B30B51C680823CC
:10D6D00065071AD5002815D0002A13D00368002B3F
:10D6E00012D10C4C2568002D0ED025894068694365
:10D6F00009186089454360682D18A94204D2136057
:10D70000516002E00E2300E00723181C30BDC04624
:10D710009029002080290020F0B5141C1C4A051C0B
:10D72000126885B00F1C082051072ED5002F2BD072
:10D73000002D29D02A680720002A26D1154E3168ED
:10D74000002922D06A680392328971897668514330
:10D750008C4603996644B14217D2002C15D09442EE
:10D7600013D8E618964210DC0322102017420CD181
:10D7700013420AD1114208D10093291C3A1C231CE0
:10D780000120FFF76FFD00E00E2005B0F0BDC046A0
:10D790009029002080290020F0B5141C1C4A051C8B
:10D7A000126885B00F1C082051072ED5002F2BD0F2
:10D7B000002D29D02A680720002A26D1154E31686D
:10D7C000002922D06A6803923289718976685143B0
:10D7D0008C4603996644B14217D2002C15D094426E
:10D7E00013D8E618964210DC0322102017420CD101
:10D7F00013420AD1114208D10093291C3A1C231C60
:10D800000420FFF72FFD00E00E2005B0F0BDC0465C
:10D810009029002080290020F0B5161C214A85B0EF
:10D82000126802900D1C0824500738D5002931D009
:10D83000029900292ED02C68002C2DD11A4F3A685D
:10D84000002A29D0398978896A68484384467868EB
:10D850008444624520D2002E1ED08E421CD8F0187F
:10D86000884219DC02980321084217D10B4215D1D6
:10D870001140039112D19918321C05F043F8296820
:10D880000C234B430096FE58281C0221039A029B4E
:10D89000B04704E00E2402E0072400E01024201C1E
:10D8A00005B0F0BD9029002080290020F0B5204B64
:10D8B00085B01B68061C0D1C08245A0734D50028A7
:10D8C00031D003680724002B2ED11A4B1A68002A86
:10D8D0002AD01A894768029258685B8953431B18FB
:10D8E00003939F4220D21024BB071DD1381A111C6C
:10D8F00005F0F8FC0724002916D1281C029905F030
:10D90000F1FC89B200290FD1002D0DD0039AEB193B
:10D91000934209D8002200920320311C2B1CFFF7F0
:10D92000A1FC041C00E00E24201C05B0F0BDC04684
:10D9300090290020802900202EDF704751DF70479A
:10D9400010DF704711DF704761DF704708B5081CB2
:10D95000111C03F009FB08BDF0B5254B85B01B7801
:10D96000002B42D0234E244F3268544254413A682F
:10D97000E4B255425541EDB2002C34D103A8FFF773
:10D98000DDFF05280AD0002804D0211C221C03F04A
:10D99000EDFA04E003983368984700E00124002D75
:10D9A0001ED1164B03A91B880B80154B1B68181C36
:10D9B0000193FFF7C9FF051E052D0BD0002805D0E8
:10D9C00000210A1C03F0D2FA002504E001983A680D
:10D9D000904700E00125002CCED0002DCCD004E0F3
:10D9E000002C02D1C8E7002DDBD005B0F0BDC04649
:10D9F000AC290020B4290020B8290020AE2900203D
:10DA0000B029002038B5041C0720002913D08D0749
:10DA100011D1094801600949201C0A80084A0949B6
:10DA20001360FFF78DFF002805D1074B0122162058
:10DA30001A70FFF781FF38BDB0290020AE29002001
:10DA4000BC2900204DD90100AC29002008B5FFF702
:10DA500079FF021C531E9A41014BD2B21A7008BDC5
:10DA6000AC290020002803D0024B1860002000E001
:10DA70000E207047B8290020002803D0024B186000
:10DA8000002000E00E207047B429002008B5074BA5
:10DA90001B68002B07D09847002806D000210A1CDD
:10DAA00003F064FA01E0FFF757FF08BDBC2900202E
:10DAB000704708B50B68984708BD000010B5054BC6
:10DAC000041C036004F068FB201C04F0C7FB201C4E
:10DAD00010BDC046E84E020010B5041CFFF7EEFF73
:10DAE000201C03F0E9FE201C10BD000013B5042229
:10DAF000019101A9041C04F005FF019B002B00D03B
:10DB0000014BE36013BDC046B3DA010030B51948DC
:10DB100089B004F00FFD184D281C00F037F9684655
:10DB20001649FFF7E3FF029B6946082204A8069303
:10DB300004F0E8FE039B124C0793069B201C236213
:10DB400004A90822183004F0DDFE079B201C636244
:10DB5000962104F03DFBFC20800504F0EBFC281C22
:10DB600000F034F9FA210748490000F09DF8FE2042
:10DB7000F2E7C046CDCCCC3DE8290020B1DA010067
:10DB8000C0290020E929002038B5124C201C00F0E3
:10DB900063F8114D11492A1C201C04F02BFE104C77
:10DBA000201C00F0F1F82A1C0E49201C04F022FE73
:10DBB0000D4C201C04F02EFB0C4B201C18300021B7
:10DBC0002360FFF793FF2A1C201C094904F012FE72
:10DBD00038BDC046E929002000280020A5DC01004E
:10DBE000E82900208BDD0100C0290020E84E02005A
:10DBF000BDDA010038B50023C356041C0D1C0133E7
:10DC000004D106480649242204F034FB6368002D41
:10DC100001D0E26800E02269136038BD0C450200C3
:10DC20002445020038B51822041C0D1C002104F004
:10DC300072FE201C291C04F0D2FB201C38BD38B514
:10DC4000051C0C1C04F038FB281C211C04F0C8F92E
:10DC500004F060FB38BD000038B5FA24051C002133
:10DC60000C48A400FFF7C6FF04F026FB211C0A485D
:10DC700004F0EAF804F04EFB08480021FFF7BAFF71
:10DC800004F01AFB0648211C04F0DEF804F042FB05
:10DC9000281C38BDEC290020EA290020202A002079
:10DCA0001C2A00207047000010B509480C1C0021F8
:10DCB000FFF7A0FF211C0748FFF7C1FF064800211E
:10DCC000FFF798FF0548211CFFF7B9FF002010BDA2
:10DCD000EC290020EA290020202A00201C2A00200C
:10DCE00008B519210D48FFF79DFF04F0E5FA0C482F
:10DCF000172104F0B1F804F00DFB1C210948FFF7CF
:10DD000091FF04F0D9FA0848182104F0A5F804F0AE
:10DD100001FB06481421FFF785FF08BD202A0020DB
:10DD20001C2A0020EC290020EA290020042A0020D7
:10DD3000014B03607047C0467845020010B5034BA5
:10DD4000041C036003F0B8FD201C10BD78450200E0
:10DD500038B51822041C0D1C002104F0DCFD201C29
:10DD6000291C04F022FB201C38BD38B50368041CB4
:10DD70009B689847201D03F075FE2368051CDB682F
:10DD8000201C9847281C38BD7047704708B504F020
:10DD900093FA0B48032103F09FFE04F0BBFA04F052
:10DDA0008BFA0848032103F097FE04F0B3FA04F05D
:10DDB00083FA0548032103F08FFE04F0ABFA08BD97
:10DDC000682A0020382A0020802A002070B5052506
:10DDD00000262A48FFF7C9FF294B181A294B80B2A1
:10DDE000984236D896239B00984234D8264B9842C6
:10DDF00026D8FA235B0098421BD8E1235B009842A7
:10DE000013D8C8235B000E2198421ED8AF235B00B5
:10DE1000984206D896235B001221984215D8C8284C
:10DE200001D9040918E0962801D90C210DE06428D5
:10DE300001D90A2109E009213C2806D81E2801D968
:10DE4000C40809E0002807D0072105F007FA84B2CA
:10DE500002E0012400E000240C48361904F06AFBBB
:10DE6000B6B2002C08D0301C052105F0F7F9013DB1
:10DE7000ADB284B2002DACD1201C70BD982A002018
:10DE8000EE02000060EA0000260200006F12833AF2
:10DE9000031C04CB10B5041C002A00D103602268C7
:10DEA0009A4204D003480449542204F0E3F920685C
:10DEB00010BDC046884502009C45020008B50248D6
:10DEC000FFF7E6FF08BDC046F02C002008B5024869
:10DED000FFF7DEFF08BDC046F02C0020F8B5094B67
:10DEE000094E041C08C4051C0F1C301CFFF7D0FF92
:10DEF000391C201C03F084FD301CFFF7C9FF281CCF
:10DF0000F8BDC04678450200F02C002070B5164ED2
:10DF10000121301CFFF7E2FF144D154C291C221C77
:10DF2000301C04F067FC02211248FFF711FF0321A7
:10DF30001148FFF70DFF04211048FFF709FF104EAD
:10DF40000521301CFFF7CAFF291C221C301C04F0DD
:10DF500051FC0C4E0621301CFFF7C0FF301C291C61
:10DF6000221C04F047FC70BD502A002031DD010066
:10DF700000280020382A0020682A0020802A00205B
:10DF8000982A00205C2A002038B50023041C016078
:10DF9000436099420AD1064D2B68002B02D102F052
:10DFA0007FFC286022689300ED586560201C38BD16
:10DFB000B02A0020F8B500280DD1104C2668002E9C
:10DFC00007D1082003F06CFC311C051CFFF7DCFFB7
:10DFD0002560206810E00A4D01272E68094C3E405C
:10DFE00009D1281C04F0F4FB002804D0281C276069
:10DFF000666004F0FCFB201CF8BDC046A42A00208B
:10E00000B42A0020A82A0020F7B5FA260093B6000B
:10E0100008AB041C1B78301C48431449171C01939F
:10E0200005F01CF985B2301C258078430F4905F0B6
:10E0300015F9009B80B2A380019B6080A371032D22
:10E0400001D80423238022888023DB019A4200D94F
:10E050002380032801D80422628062889A4202D970
:10E060008023DB016380201CFEBDC04671020000DE
:10E0700093DF704708B50368002B01D0081C984750
:10E0800008BD08B50368002B01D0081C984708BDDF
:10E0900010B50023021C03701132431C00241C70B5
:10E0A00001339342FAD1418210BD10B50B78041CA4
:10E0B00003704B8A102243820131013004F022FCAC
:10E0C000201C10BD38B502680B68051C0C1C9A4258
:10E0D00021D10379002B07D10B79002B1BD1C28AE8
:10E0E000CB8A9A4217D10BE0012B14D10B79012B6B
:10E0F00011D105300531102204F0F5FB00280AD1BA
:10E100002A7E217E7F231A400B409A4203D16A8BDC
:10E11000638B9A4201D000200AE0EA69E36900209B
:10E120009A4205D1238C288CC01A43425841C0B270
:10E1300038BD70B5051C0E1C00242819311CFFF7D2
:10E14000C1FF002803D14C34E42CF6D100E00120BB
:10E1500070BD000007B501AB1980191C5A80FFF78C
:10E1600087FF10280CD003D8002398420BD009E079
:10E170000523112807D0054A0423904203D001E06B
:10E18000032300E00B23181C0EBDC0460230000024
:10E1900070B50025041C291C20C0FFF779FF0C2650
:10E1A000201C291C321C25766583A583E5832584E4
:10E1B000243004F0B0FB074B201C65632363291C4B
:10E1C000321C383004F0A7FB034BA564201C6364A9
:10E1D00070BDC04675E0010083E0010010B5041C6D
:10E1E000FFF7D6FF201C4C30FFF7D2FF201C9830E1
:10E1F000FFF7CEFF201C10BDF8B50D1C1E1C08C972
:10E20000041C08C0171CFFF750FF2B7E3A1C237616
:10E210006B8B6383AB8BA383EB8BE3832B8C23848C
:10E22000231C243323CA23C3FF68002227636263AD
:10E23000311C0833A1C9A1C3F668201C6664A2641E
:10E24000F8BD70B50E1C8AB00168041C038C0190E7
:10E25000684603AD03911230111CAB80FFF725FF18
:10E26000201C6E8302952430236B01A998470AB0C5
:10E2700070BD07B5031C6A460090117138305B6CA5
:10E280006946984707BDF0B5A7B00B790C1C086824
:10E2900069460B71E38A00906846161CCB821022F7
:10E2A000611D053004F02EFB237E6D462B76638BBB
:10E2B000221C6B83A38B2432AB83E38BEB83238CF5
:10E2C0002B8409ABA1CAA1C3216B00250C910D952C
:10E2D0000EAB083283CA83C3626C13A811921295E5
:10E2E000FFF756FF13A9201C222204F00BFB231C6E
:10E2F0001CAA243383CA83C31F9A6563226308332D
:10E3000021AA83CA83C3249AA56462646846311C27
:10E31000FFF7AFFF27B0F0BD10B594B0041C01A803
:10E32000FFF736FF201C01A9FFF7CCFE002398421F
:10E3300019D00D9A236B9A4214D1211C0AA82431BA
:10E340000C2204F0D0FA00280CD1129B626C93428C
:10E3500008D1211C38310FA80C2204F0C4FA012383
:10E36000002800D00023181C14B010BDF8B5061CFE
:10E370000F1C00257419201C391CFFF7A3FE002870
:10E3800004D0201CFFF7C8FF002803D04C35E42D33
:10E39000F0D10024201CF8BD10B5041CFFF7E6FFE7
:10E3A000011E03D0201C0022FFF76DFF10BDF8B541
:10E3B0000F1C041C0325238C261CBB4204D1201CEB
:10E3C000FFF7AAFF002804D0013D4C34002DF2D104
:10E3D0002E1C301CF8BD38B5041C151CFFF7E7FFD8
:10E3E000011E03D0201C2A1CFFF74DFF38BD08B5C5
:10E3F000FFF7DDFF431E9841C0B208BDF0B589B0FC
:10E40000061C0091171CFFF7D2FF041E2AD000251E
:10E410003A88062395420FD26B43FB185A88998895
:10E4200003A801920135FFF733FE201C019903AACE
:10E43000FFF707FFADB2EBE7013A5343FF187988C6
:10E44000E28B013189B2914203D9301C211C002298
:10E4500006E00098FFF77EFE021E03D0301C211C50
:10E46000FFF711FF09B0F0BD70B5061C0024351987
:10E47000281CFFF751FF002803D14C34E42CF6D1BF
:10E48000051C281C70BDF0B51E1C4B8B041C0233F0
:10E49000C88B99B09BB20D1C03920F8C0193029014
:10E4A000984207D2002705910697F368301C05A90A
:10E4B00098472DE0201C391CFFF799FF002801D058
:10E4C000052725E0201CFFF7CFFF041EF8D0381CDD
:10E4D0000199029AFFF73EFE071E19D1291C331C31
:10E4E000039A05A8FFF788FE05A92222201C04F044
:10E4F00009FA231C24330EAA23CA23C31199083313
:10E500002163676313AA23CA23C3169AA7646264AC
:10E51000381C19B0F0BD30B503AC258804AC248894
:10E52000028484830122047E4583151C1D40016002
:10E530009443590811402C4302259140AC439D0857
:10E5400015400C430421AD008C43D90811402C43E5
:10E550000825C900AC431D0915400C4310212D01AD
:10E560008C432C43590920259B09AC4311401A4088
:10E5700093014901221C0A4340218A431A4302762F
:10E5800030BDF0B589B0041C0EA805780FA8078827
:10E5900010A8008803AE228401902160301C191C51
:10E5A000FFF776FD231D07CE07C303CE03C3019AF1
:10E5B000217E0123281C1840A28399436A081A402F
:10E5C000014302209A408143A808184011430422C5
:10E5D00080009143EA081A4001430820D200814399
:10E5E00028091840114310220001914301436A0990
:10E5F0002020AD091A4081432B409D0152010B1C84
:10E600001343402293432B436783237609B0F0BD25
:10E6100070DF704771DF704772DF704773DF7047DC
:10E6200074DF704775DF704776DF704777DF7047BC
:10E6300078DF704779DF70477ADF70477BDF70479C
:10E640007CDF70477DDF704786DF704787DF70476C
:10E6500088DF70471420704764207047A020800135
:10E66000704708B5FFF7F2FF421E90414042052374
:10E670000340181C08BD10B5041CFFF7D1FF021C95
:10E680000320002A06D1201C5830037801218B4337
:10E690000370101C10BD08B53B239A4200D0132311
:10E6A000081C191CFFF7C0FF002800D0032008BD7C
:10E6B00008B50A1C0368011CFE31C98B1B6A984708
:10E6C00008BD08B5081CFFF7B9FF002800D00320DB
:10E6D00008BD08B5081CFFF7AFFF002800D00320D5
:10E6E00008BD08B5081C111CFFF79CFF421E904195
:10E6F000404203230340181C08BD08B5081C111C28
:10E70000FFF7A0FF421E9041404203230340181C24
:10E7100008BD08B5081CFFF78BFF421E9041404220
:10E7200003230340181C08BD08B5081CFFF782FF2F
:10E73000421E9041404203230340181C08BD08B507
:10E74000081CFFF773FF0023984203D0052311280C
:10E7500000D00323181C08BD024B0B600923136073
:10E760007047C046B545020008207047B8300170B8
:10E7700000207047B93001700020704702207047B8
:10E78000B83000787047B930007870470020704783
:10E7900008B50368002B01D0081C984708BD08B5D0
:10E7A0000368002B01D0081C984708BD08B5031C5E
:10E7B0001A1CF3326C3011789B6F984708BD10B566
:10E7C00018C96210E10701D58158CB5880189847C5
:10E7D00010BD0000012008B5054A011CFDF7F4FC3E
:10E7E000421E904140420B230340181C08BDC04606
:10E7F0004DE9010013B50C1E012C07D86846111C09
:10E800000130062204F07EF8002005E08B1E012B6B
:10E8100001D9032007E001206B4669461C70FFF711
:10E82000F7FE0028F5D116BD37B568460D1C141C3F
:10E83000FFF7F0FE032300280FD1002D02D06A4617
:10E8400013782B70002C07D06946201C013106225A
:10E8500004F058F8002300E0231C181C3EBD70B5DE
:10E86000061C0D1C0024331CBA331B78A3420ED99E
:10E870006B79A3420BD90722111C61432B68013429
:10E8800058187118BB3104F03DF8E4B2EBE72C7175
:10E89000002070BD37B5112301AD081C2B700C1C76
:10E8A00004F094F9211C82B2281CFFF7C9FE421E15
:10E8B0009041404203230340181C3EBDF8B5036855
:10E8C000061CDB6C0C1C0D7998470323854226D867
:10E8D00022790023D9B2914208D2072159432068F6
:10E8E0000133095C0329F5D1042318E0371CBA373A
:10E8F00000253D702379AB4210D938780722504368
:10E90000111C6943236830185918BB3003F0FAFF13
:10E910003B78013501333B70EDB2EBE70023181C67
:10E92000F8BD10B50C1CC97F01201F290DD8002986
:10E930000AD0D37F201CFFF76FFE002804D1208C63
:10E94000FFF776FE002800D0032010BD70B5051C2F
:10E9500086B0002001F0A8FF036800261B699847D5
:10E96000031CF3331D700F4B041C0490694602A86E
:10E9700008220093019603F0C5FF0B4B02A90593F3
:10E9800086235B00E518049B0822AB60281C03F07B
:10E99000B9FF059B201CEB60F430311C03F018FC20
:10E9A00006B070BDADE70100BFE70100F0B5051C82
:10E9B000AC35041C686887B0A860A86800280BD034
:10E9C000C368211C9847AB68002B02D16968A96015
:10E9D000F3E71B69AB60F0E7261CB0363568002D05
:10E9E00005D02F69281C02F067FF3D1CF7E7231CA8
:10E9F00058331978FC2235600A40261C1A700A36F2
:10EA0000023B1D709D71301C291C1F2203F083FFE7
:10EA1000F5772A36301C291C1F2203F07CFFF5777E
:10EA2000606E002804D0056902F046FF281CF8E754
:10EA3000251C606698352868002804D0066902F015
:10EA40003BFF301CF8E7261C2860A4363568002DF3
:10EA500005D02F69281C02F02FFF3D1CF7E7356019
:10EA600001AE291C301C0C2203F055FF231C321C64
:10EA70006C3383CA83C3094BE567A3670C22301C40
:10EA8000291C03F048FF231C803385CE85C3044A2C
:10EA90009034281C1A60256007B0F0BD9FE7010084
:10EAA00091E7010010B5041CFFF780FF00280AD190
:10EAB000231C0122FE335242DA83BA34463B1870DB
:10EAC0005870207000E0062010BDFE30C1837047F2
:10EAD000FE30C08B70470000F0B593B0039000206B
:10EAE0000C1C01F0E1FE03685B6A984702F09CFB96
:10EAF00006AB00280DD000221A7105AA0692082242
:10EB00001A73181C0AAA9A6002F05AFC002802D054
:10EB10004FE0187118730023237323711F1C039B8C
:10EB2000BA331B78BB4243D907237B4303990025A3
:10EB3000CA18B832D278022A2DD106AE337BAB4246
:10EB400033D907207843039BAA001818B368BB3059
:10EB50009958029202F04CFC002819D0B168029B2F
:10EB6000CA58237BA1689B005A50237B327B013318
:10EB70002373531E9D4206D00F49B368521892006A
:10EB8000D25802995A5006AB1A7B013A1A730CE01C
:10EB90000135EDB2D1E703992279CB182168BB3357
:10EBA000920053502379013323717B1CDFB2B6E707
:10EBB000002013B0F0BDC046FFFFFF3F70B50B78DB
:10EBC000021C9AB00D1C0220012B3BD04988032B5C
:10EBD00004D1A039181C89B21B4B03E020391B4B10
:10EBE00089B2032099422DD8A988194B0320994254
:10EBF00028D80AAB009312AB029369460023161C77
:10EC00000B710B73B8363378002B05D0101C694696
:10EC1000FFF762FF002815D104AC0021201C182248
:10EC200003F079FE2B7800A923703378201C23721F
:10EC30006B88E1602382AB886382FFF7EFFC0028DA
:10EC400000D003201AB070BD603F0000E03F00001C
:10EC5000FF3F000070B598B008AB009310AB029373
:10EC60006A460023051C13711373B9352B780C1CED
:10EC7000002B1FD104A82A780678A1790123194016
:10EC80009E4313405A00331C0B4302218B43134312
:10EC9000037000AB43602388038163884381A388AA
:10ECA0008381FFF7D1FC031C5A1E934103205B4272
:10ECB000184004E06946FFF70FFF0028DAD018B0CB
:10ECC00070BD0000F0B59DB0051C1F1C68466B466A
:10ECD0001A7001300622229E02AC03F013FE002FB0
:10ECE00007D03B8823807B886380BB88A380FB8818
:10ECF00006E032232380642363809623A7809B0051
:10ED0000E3800CAB04A9049314AB8B602F1C00238D
:10ED10000B710B73B9373B78002B17D1387808A9E2
:10ED200001230A7802271840BA43984004AF4F6085
:10ED30000243002E10D0B0799A4318403388024322
:10ED40000B8173880A704B81B38811E0281CFFF790
:10ED5000C3FE0028E2D02AE0281C323000789A4313
:10ED60001840AB8D02430B81EB8D0A704B812B8ECB
:10ED70006846221C8B81FFF76BFC031C002083423A
:10ED800015D0082B12D005D80720042B0FD08342B2
:10ED90000AD107E00520112B09D0064A934201D081
:10EDA000102B01D1042002E00B2000E006201DB052
:10EDB000F0BDC046023200007047022070470020BC
:10EDC0007047704790DF704795DF704797DF704757
:10EDD00093300078431E9841C0B2704708B5081CB4
:10EDE000111C1A1CFFF7F0FF031C0020834204D003
:10EDF000113B584243410620C01A08BD30B585B0CA
:10EE000001AC6380089B0025E380099B2170101CE6
:10EE1000211C6570A5800393FFF7D8FFA84208D096
:10EE2000112805D0044BC51868424541063500E05D
:10EE30000525281C05B030BDFCCFFFFF08B50368D1
:10EE4000002B01D0081C984708BD08B50368002BAB
:10EE500001D0081C984708BD08B50368002B01D0F5
:10EE6000081C984708BD08B5ED30FF30FFF70BFBD5
:10EE700008BD08B5ED30FF30FFF75BF908BD08B5F8
:10EE8000ED30FF30FFF788FA08BDF0B587B001AB71
:10EE90001A1C0C1CE0CCE0C2DA2464000219C96818
:10EEA000E0CBE0C200190023C160036107B0F0BDF0
:10EEB000F0B5051C91B006AE34350195009103966E
:10EEC000041C311C101CE0C8E0C10BAD0295D768D2
:10EED000191C2A1C61C961C2DB6801980593636B28
:10EEE0005B689847051C0620002D3AD1039A231C25
:10EEF000503343CA43C3029AE76525661C33C1CA2F
:10EF0000C1C3059E201C1E6004331D601699142287
:10EF10003A3003F0F7FC201C17991422643003F0F8
:10EF2000F1FC009F231C91332787013B5D70012179
:10EF3000381C1D70D9702A1CFFF744FF071C281CC1
:10EF4000002F0ED0636B01989B689847112F07D054
:10EF5000054B9F4202D00620072F02D1042000E07B
:10EF6000052011B0F0BDC04602300000F0B597B0EA
:10EF70000593036807AC1B6804910393111C231CC1
:10EF8000061CA1C9A1C3D26800250A92291C0C2223
:10EF90000CA811AF0B9503F0BEFC094B291C381CC3
:10EFA00010950F93FFF774F8059D01970095301C9D
:10EFB0000499221C0CAB039FB84717B0F0BDC046A4
:10EFC0004BEE0100F0B589B0002603AC051C86802D
:10EFD000311C201CFFF75CF8211CA81D142203F033
:10EFE00091FC2F1C311C0C22201C03F094FC1C37BC
:10EFF000201C0EC80EC70F4B311C0190AB62EE6295
:10F00000201CFFF745F82B1C221C303383CA83C316
:10F01000019A311C81CA81C30C22201C03F07BFCA5
:10F020002B1C443386CC86C3034B301C2B656E658A
:10F0300009B0F0BD3DEE01004BEE010070B5041CBF
:10F04000C06A86B02063206B00280BD0C368211CE7
:10F050009847236B002B02D1E16A2163F3E71B6918
:10F060002363F0E7E06A002804D0056902F024FC7D
:10F07000281CF8E7E062A068002804D0056902F0C7
:10F080001BFC281CF8E7A0606069002804D0056913
:10F0900002F012FC281CF8E7256A6061002D05D0FB
:10F0A0002E69281C02F008FC351CF7E7201C25629D
:10F0B0003430FFF787FF002829D1231C90331D70BF
:10F0C0005D709D70DD70C2235B00E550E218012386
:10F0D0005B4253609360D3601361CE225200A5500F
:10F0E000CE225200A21801AE53609360D360136128
:10F0F000301C291C0C2203F00EFCDA225200A3184B
:10F1000007CE07C3B534034BFF34E360256100200D
:10F1100006B070BD59EE010070B58AB001AD041C97
:10F1200024220021281C03F0F6FB002102A8FEF790
:10F13000AFFFCA235B000026E018291C22222E768E
:10F140006E83AE83EE832E8403F0DCFB2368201CE9
:10F150005B689847231C5F331E70B0420DD0C023FC
:10F160005B00E358B34208D0054BB34205D0C0233F
:10F170005B00E018A188C36898470AB070BDC0461C
:10F18000B9ED010008B53430FFF7C6FF08BDA0DFB8
:10F190007047A4DF7047A5DF7047A6DF7047A8DF80
:10F1A0007047A9DF704700207047000073B5151C39
:10F1B00002680E1C009394682B1C321C0149A04766
:10F1C00076BDC046FFFF000037B5069C00200090CA
:10F1D00020886D462880081C111C6A460193FFF7A1
:10F1E000DAFF0323002802D12B882380031C181C7C
:10F1F0003EBD000073B5151C06AA0E1C11780268EE
:10F200000093019114692B1C321C0149A04776BD63
:10F21000FFFF0000F8B5041C00200E1C151C01F0B7
:10F2200043FB03681B69984723689F69FFF750FCFD
:10F23000321C011C2B1C201CB847F8BDF0B5D48B28
:10F2400042791E1C85B00023934218D2DD00451977
:10F25000C4352D88A54210D11833DB00C3186C4685
:10F260001A890E3402232380036803AD00949F683B
:10F270002B1CB847021E04D00DE00133E4E7042044
:10F2800009E023880620022B05D12B88101C9A0741
:10F2900001D00123337005B0F0BD000070B50D1C26
:10F2A00086B000210091161C0AA90BAA09881278C1
:10F2B0006C4621800193002A01D141790EE0281C7F
:10F2C000311C6A46FFF765FF00283ED16CE0D40090
:10F2D0000419C4342488B44203D001328A42F6D3DC
:10F2E00035E01C3292008018426830210132D27F12
:10F2F0000A422CD002AC10210A40E3600AAB514212
:10F300004A41A360294B013200202680A270A080D0
:10F310009D4207D101F0C8FA03681B699847FFF7BF
:10F32000D7FB051C281C211CFFF737FF83B2181ED2
:10F330003AD0112B37D02EDC082B32D0281C311CB0
:10F340006A46FFF726FF00282DD003202CE0281C5A
:10F35000311C6A46FFF71DFF031E0C2BF5D00C284D
:10F360000AD80528F1D0072801D104201CE000208C
:10F37000834219D00B2017E01028F6D003D80820BC
:10F380000F2B11D0F6E70A4A9042DED0D02292012C
:10F390009042DAD0EEE7074B984204D0064B9842F1
:10F3A000CCD1062000E0052006B070BDFFFF0000B4
:10F3B00002300000033000000134000008B503787B
:10F3C000002B08D10B78002B11D1428A4B8A9A422C
:10F3D0000DD101200CE0012B09D10B78012B06D1B6
:10F3E00001300131102203F07EFA0028F1D0002014
:10F3F00008BD0000F0B5061C99B0081C0F9102F082
:10F4000027F86C464634129012A90120221CFFF7FF
:10F41000BEFE002801D00320BEE023880F990E9085
:10F420008B830F990E9A0B7D93426AD97379132BB4
:10F4300001D90720B0E00F9A0E9992698B009C5871
:10F440006269002A62D1638B002B5FD1631CDB7F72
:10F45000022B5BD150E0616AAB005F5813A84F49A3
:10F46000FEF716FE381C13A9FFF7A8FF002803D0EB
:10F470007A697F8B0C920D970135EDB2231C2833EE
:10F480001B78AB42E7D86169631CDA7FA31CDB7F82
:10F490000091618B00200191218B0291217F0391CA
:10F4A0000C9904910D990591211C29310978069137
:10F4B000211C2A310978079171791831C900711816
:10F4C0000431089112A902F01DF80028A3D1737924
:10F4D0001A1C1C3292001833B218DB005460F31867
:10F4E0009B880C90E383737901337371231C283359
:10F4F0001B780C9A934211D80E9B0133DBB20E930A
:10F500008FE7337900200133337145E0201C01F08F
:10F510009FFF002512900D950C95AFE7C2277F0045
:10F52000F35D072B85D80C9A616A93005D5813A888
:10F530001A49FEF7ADFD281C13A9FFF73FFF0D90F8
:10F54000002824D1281C01F083FF298B6A696B8B6A
:10F550000091297F12900191F15D0D98C031490011
:10F5600071180631029112A902F086F8002800D025
:10F5700051E7F35D1A1C58329200C033B2185B0099
:10F580005560F318DB88EB83F35D0133F3550C9B77
:10F590000133DBB20C93A9E719B0F0BD01290000DB
:10F5A00038B50C220D1C0021041C03F0B4F9002313
:10F5B0002361024B2560201CE36038BD59EE010039
:10F5C000F0B5041C006B87B06063606B00280BD043
:10F5D000C368211C9847636B002B02D1216B6163C8
:10F5E000F3E71B696363F0E7206B002804D005692B
:10F5F00002F062F9281CF8E7206320716071E0686E
:10F60000002804D0056902F057F9281CF8E7E060EB
:10F61000A069002804D0056902F04EF9281CF8E71B
:10F62000666AA061002E05D03569301C02F044F9ED
:10F630002E1CF7E701AD311C6662281CFFF7B0FFF6
:10F64000231C2A1C383383CA83C3EB68311C6364D0
:10F65000A664281CFFF7A4FF231C2A1C4C3383CA72
:10F6600083C3EB68311CA365E665281CFFF798FF90
:10F67000231C2A1C603383CA83C3ED68301CE566F3
:10F68000266707B0F0BD38B5051CFFF799FF041ECB
:10F690001DD1281C211C5022743003F03CF9B223E8
:10F6A0005B00E818211C202203F035F9281C211CDE
:10F6B0000822C43003F02FF9C3235B00E818211C93
:10F6C000102203F028F9C2235B00EC5400E006246A
:10F6D000201C38BD0B68002B01D1036002E0024BF7
:10F6E0000360002343607047B9ED010038B5041C86
:10F6F0000D1C6368A360A068002807D0C368291C9C
:10F700009847A368002BF4D01B69F3E738BD08B510
:10F71000C368984708BD30B5141C87B004290ED0C3
:10F72000052917D0032925D1051C383504A8291C23
:10F73000FFF7D0FF049A002A18D1059B14E0051C9E
:10F740004C356846291CFFF7C5FF009B002B0DD1E7
:10F75000019B09E0051C603502A8291CFFF7BAFFD0
:10F76000029B002B02D1039BDA0703D5281C211C26
:10F77000FFF7CDFF07B030BDF0B50B888FB0051C8B
:10F780000C1C512B41D008D8012B24D0502B00D079
:10F7900002E1CE88427900230EE0522B2ED0532B6B
:10F7A00000D0F9E0CE8805213AE0D9006918C831C7
:10F7B0000988B14203D001339342F6D309E01C33E8
:10F7C0009B00EB185A683021531CDB7F0B4200D0A2
:10F7D000CCE0022124E0C0680C7A28612869002866
:10F7E00000D1D9E0C368211C98472B69002B02D1B6
:10F7F000E9682961F2E71B692B61EFE7888800213E
:10F800000A1C0B1CFFF7CDFCC6E08B79012B05D041
:10F81000022B00D0C0E00E89072101E00E890621ED
:10F820006B79002200920098984200D3B4E00098CF
:10F83000C200AA18C4321288B24212D1062957D087
:10F84000072911D0022900D08BE0A3880AA90B80D8
:10F850004E80237A0B71A38BCB80E38B20340B81FA
:10F8600040E0009A0132DDE70021102202A803F0F7
:10F8700052F8A38869460B814E81E38B221C8B8151
:10F88000238C223206AFCB810192049200211022F8
:10F89000381C03F040F802233B70009B1C339B0094
:10F8A000EB185B681A1C2A3211780022914206D0AC
:10F8B000181C4030DB6C02A998476B469A8AA088D6
:10F8C000391CBA80FFF76BFCBB88002B64D1A3887E
:10F8D0000AA90B804E80A37A0B71E38BCB80238C1B
:10F8E000019C0B81281CCC601430FFF7FFFE53E015
:10F8F00006AF00211022381C03F00DF8A3887E808B
:10F900003B80A38B0AAE00211022301CBB8003F089
:10F9100002F801233370009B1C339B00ED186B68C9
:10F920001A1C293211780022914205D0181C2C3063
:10F930009B6B391C9847BA89B280BB89002B0BD1CD
:10F94000BB68002B08D0B27901210A43B271BA8892
:10F950003281FA88F3607281A088311CFFF71FFCA6
:10F960001AE0281C321CFFF7D6FE15E0A11CC87F48
:10F970000134E17F00020843990602D50321840780
:10F9800007D40421DC0604D501210840414241414D
:10F990000331D28B281CE6E70FB0F0BD90DF704733
:10F9A00092DF704794DF704738B502680B68051C1A
:10F9B0000C1C9A4201D000231AE004300431FFF7F6
:10F9C000FDFC0028F7D02A7E217E7F231A400B40C1
:10F9D0009A42F0D16A8B638B9A42ECD1EA69E3696F
:10F9E0009A42E8D12A8C238CD31A5A425341DBB273
:10F9F0000120584038BD38B50025041C291C20C002
:10FA0000FEF746FB25766583A583E5832584201CC8
:10FA100038BD036810B5021C002B0BD0591E40687E
:10FA200011609900002304338B4205D0D418646818
:10FA3000D450F8E70120404210BD036810B5021C05
:10FA4000002B0BD0591E406811609900002304332D
:10FA50008B4205D0D4186468D450F8E701204042A6
:10FA600010BD000073B5051C2B686C69002B1CD001
:10FA7000231C5F3303221A706E680F490422684604
:10FA800002F040FF182373436033E318998ADB8A3E
:10FA900001AA11805380A0886946FFF783FF0028E0
:10FAA00009D0281CFFF7B5FFDEE75F342378032B6E
:10FAB00001D10123237073BDC0460200F0B5031CC1
:10FAC0005C3300221A700A7889B0041C0133042ABE
:10FAD00000D904221A70A82300205B00E050A8235C
:10FAE00001225B005242E318271C5A609A60DA60D8
:10FAF0001A610D1C7437061C231C5D331B789E4253
:10FB000026D22B79002B0DD1A8225200A358591CC4
:10FB10009B00E3185133FF33A1505E60EA882B89C4
:10FB20003A8010E0698803A8FEF7B2FAEB88381C27
:10FB300000932B89143803A91422019302F0E2FEEA
:10FB4000009B3B80019B7B80013608351837D3E74B
:10FB5000231CFC335B6D002B04D0A8256D006019BD
:10FB6000FFF780FF09B0F0BD73B5051C2B686C6909
:10FB7000002B1CD01149231C04225F331A708918F2
:10FB80006E68684602F0BEFE24235E43C036A619A6
:10FB9000738B01AA138001335380A0886946FFF755
:10FBA00001FF002809D0281CFFF747FFDEE75F347C
:10FBB0002378042B01D10223237073BDC0460200B9
:10FBC000F0B50A78031C89B0041C0F1C5E33042AAC
:10FBD00000D904221A70B4235B000026E650B42337
:10FBE00001225B005242E318201C5A609A60DA60DE
:10FBF0001A613D1CC030231C07905E331B789E4267
:10FC000030D22B79A16D002B16D1B4225200A3580B
:10FC1000581C9B00E3186933FF33A0505E600A2331
:10FC200073432889FB189B7900906889A28801900A
:10FC30000798FEF770FC10E00A2070436B88A288DA
:10FC40000593C3199B79684603702889059B019029
:10FC5000688902900798FEF794FC079801360A35E8
:10FC60002430C8E7231CFC33DB6E002B04D0B42106
:10FC700049006018FFF778FF09B0F0BD7FB5031C9D
:10FC80005F331B78051C032B26D1A822520086184F
:10FC9000264B0A689A421BD189681022684602F0F6
:10FCA00031FE301CFFF7B5FE1824444360342D1993
:10FCB00001232B70E8186946102202F023FEAB7B6B
:10FCC0006A7B1B0213436B82301CFFF7CBFE2CE0D8
:10FCD000301CFFF79EFE28E0042B26D1B4235B00E6
:10FCE000C6180A68124B9A421CD189681022033147
:10FCF000684602F007FE301CFFF79FFE24244443B1
:10FD0000C0342C1901232371601D6946102202F0B2
:10FD1000F9FDA37C627C1B021343E382301CFFF7D6
:10FD200023FF02E0301CFFF788FE7FBD01001000BA
:10FD3000010013000B68002B01D1036002E0024BAD
:10FD40000360002343607047B9ED010008B5C36844
:10FD5000984708BDF0B5021C5F3291B0019213784C
:10FD6000051C041C0E1C5C35022B5BD1CA235B00F6
:10FD7000C3180021242207A8009302F0CCFD07A895
:10FD8000FFF739FE009807A9FFF70EFE002846D0BE
:10FD9000002E35D12B78182253436033E318DA8ACA
:10FDA000D9235B00271C311CE252303702A8FEF732
:10FDB0006FF9381C02A9FFF701FB061E14D1CC22F3
:10FDC0005200381CA118FFF7F9FA002818D0311C8E
:10FDD00007A8FEF75DF9A01D07A9FFF7EFFA0123B9
:10FDE0005840C0B200280BD0261C443602A8311C53
:10FDF000FFF7A0FF029B002B19D1039BDA0716D453
:10FE00000021242207A802F086FD07A8FFF7F3FDD2
:10FE1000CA235B00E01807A9222202F073FD019AB1
:10FE2000012313702B7801332B7011B0F0BD301CFF
:10FE30000099FFF78BFFE3E773B581800226051C6D
:10FE40005E304670002401AE0470081C311C328004
:10FE50007380FFF7A5FD10280ED005D8A04210D062
:10FE60000624082809D005E00524112805D0064AF3
:10FE7000904201D00B2400E00424281C211CFFF731
:10FE800069FF201C76BDC04602300000F0B5041C9E
:10FE900089B0261C5F363378012B6DD1251C201CC0
:10FEA0005C355D302B78027893424CD20021A71D3F
:10FEB00003A8FEF7EDF8381C03A9FFF77FFA002826
:10FEC00009D12B781821594360316118381CFFF78C
:10FED00075FA002833D0E369002B16D0274B002B8E
:10FEE00013D0002103A8FEF7D3F8201C303003A95B
:10FEF000FFF764FA002808D02B7818215943201CFA
:10FF0000603161181C30A36A98473678012E16D1EB
:10FF1000211C01A84431FFF70DFF019B002B02D1EA
:10FF2000029B33420BD02B78182253436033E318E3
:10FF30009A8AA188DB8A201CFFF77EFFA9E72B782D
:10FF400001332B70A5E7002A16D0002B14D01822FD
:10FF5000013B53436033E318D98A094B00220270F6
:10FF60002A70994203D1201CFFF7D6F804E0A0883C
:10FF7000FFF714FD0028F6D109B0F0BDB9ED01007E
:10FF8000FFFF0000F0B5041C97B05F3003900378CA
:10FF9000022B00D0D6E0CA2252000021A7180DA8DB
:10FFA000242202F0B8FC0DA8FFF725FD381C0DA98E
:10FFB000FFF7FAFC00283AD0231C5E331B78002B95
:10FFC00035D0231CDA331A88D923013A5B00261C6A
:10FFD000E2520021303608A8FEF75AF8301C08A972
:10FFE000FFF7ECF9051E14D1CC235B00301CE1189F
:10FFF000FFF7E4F900281AD0291C0DA8FEF748F8ED
:020000022000DC
:10000000A01D0DA9FFF7DAF901235840C0B200285E
:100010000DD0251C443504A8291CFFF78BFE04983D
:10002000002800D084E0059BDA0700D580E0002599
:10003000231C5E3301931E78B5424DD2039803789A
:10004000022B00D07EE0721E2423954208D1191C99
:100050006943C0316118381C222202F053FC3BE096
:100060006A1C1E1C53436E43C033E3185B8BC036BF
:10007000013BA619221C3032F383002108A801920B
:10008000FEF706F8019808A9FFF798F902900028F2
:1000900012D1311D0198FFF791F9002819D002996A
:1000A0000DA8FDF7F5FFA01D0DA9FFF787F90123A6
:1000B0005840C0B200280CD0231C443306A8191C99
:1000C0000193FFF737FE0698002836D1079BDA0721
:1000D00033D40135EDB2ABE703980378022B31D16D
:1000E000002E08D02423013E5E43C036A619B38BF0
:1000F00001339BB200E0144B221C5C3212781821B1
:100100004A436032A218D28A0198002101709342BA
:100110000AD20DA90B804A80A088FFF741FC002875
:1001200010D0201C0B2100E0201CFFF713FE09E07B
:10013000281C391CFFF70AFE79E70198311CFFF7EC
:1001400005FEC6E717B0F0BDFFFF000002207047B4
:100150000220704700207047002070470048704719
:10016000FFFF000002207047022070470220704706
:10017000022070470220704702207047022070471B
:10018000022070470220704702207047022070470B
:100190000220704702207047002313607047002040
:1001A00070470220704702207047022070470220EB
:1001B00070470220704700207047002070470020E1
:1001C000704702207047022070474160704781608D
:1001D0007047C160704701617047416170470220FC
:1001E00070470220704702207047022070470220AB
:1001F0007047022070470220704790DF704766DF2B
:10020000704748DF70475F300078431E9841C0B2A6
:100210007047007970470C3070470C30704708B554
:10022000FFF7EFFF08BD000010B5034B041C03608F
:10023000FDF744FC201C10BD004F020010B5041C4B
:10024000FFF7F2FF201C01F037FB201C10BD08B5A2
:10025000081C111C1A1C029B00F0ECFF08BD08B51D
:10026000081C111C01F060F808BD08B5081C111C21
:1002700001F080F808BD08B501F042F808BDF0B5FE
:1002800095B008230C1C69460B7104AA0B736846D1
:100290000CAB0293009201F093F80023061C051E9C
:1002A0002CD169460B79AB4211D96379AB4201D8A5
:1002B000257124E00722101C68432368009F18184A
:1002C000AB00D959013502F01DFBEDB2E9E725710C
:1002D00000256B461A7B2379EB18AA420ED9627966
:1002E00093420BDA0721029F4B43AA00D0592268A0
:1002F0000135D11801F080F8EDB2EAE72371301C26
:1003000015B0F0BD7FB50379002B0FD0164E174CFA
:100310003378201C002B25D102AD281CFFF76FFF7E
:10032000002819D16B88592B16D101E0104819E02B
:100330002B78AA88D91F012904D80092201C2021DB
:100340000C4A03E000920C4A201C202102F00CFC15
:1003500001233370201C05E0201C0849202202F0F4
:100360003CFCF7E704B070BDB82A0020F42B002055
:10037000B0480200CA480200E74802000C490200E7
:1003800038B50379041C0920002B28D0FDF75EFB4B
:10039000031C0520002B22D1251CFC35286B0028CE
:1003A00003D1A86B002806D10AE003681B6A9847AE
:1003B0000028F6D013E003689B6A984700280ED106
:1003C000686B002804D00368DB6A9847002806D1D0
:1003D000201C0C30FEF766FB002800D1207138BDD0
:1003E000F7B50093036801915B68041C171C9847DC
:1003F000051C0620002D3BD11C203A1C00194ACABE
:100400004AC0FF68009A231CA762E562443383CA8E
:1004100083C3009B0899DB68142223656565A01DD2
:1004200002F070FA201C09991422303002F06AFAA6
:10043000019E231C5D33A680013B5D700121301CB1
:100440001D70D9702A1CFFF7D8FE061C281C002E30
:100450000ED02368201C9B689847112E07D0054BAF
:100460009E4202D00620072E02D1042000E0052083
:10047000FEBDC0460230000038B5041CE3692362AB
:10048000206A002807D0C368211C9847236A002BE4
:10049000F4D01B69F3E7E069002804D0056901F096
:1004A0000BFA281CF8E7E0616060A060E060206162
:1004B000606138BD08B5FFF7DFFF002800D00620D7
:1004C00008BD38B5041C0068002804D0056901F097
:1004D000F3F9281CF8E7206038BD000010B5034A86
:1004E000041C04C0FFF7EDFF201C10BDC047020034
:1004F00010B5041CFFF7F2FF201C01F0DDF9201CF1
:1005000010BD38B5041C0068002804D0056901F04E
:10051000D3F9281CF8E7206038BD000010B5034A65
:10052000041C04C0FFF7EDFF201C10BDD0470200E3
:1005300010B5041CFFF7F2FF201C01F0BDF9201CD0
:1005400010BD000038B5074B041C0360406800284C
:1005500004D0056901F0B0F9281CF8E76060201CA0
:1005600038BDC0464048020010B5041CFFF7EAFF42
:10057000201C01F0A1F9201C10BD000038B5074B6C
:10058000041C03604068002804D0056901F094F958
:10059000281CF8E76060201C38BDC04600470200F8
:1005A00010B5041CFFF7EAFF201C01F085F9201CA0
:1005B00010BD000038B5074B041C036040680028DC
:1005C00004D0056901F078F9281CF8E76060201C68
:1005D00038BDC046D046020010B5041CFFF7EAFF44
:1005E000201C01F069F9201C10BD000038B5074B34
:1005F000041C03604068002804D0056901F05CF920
:10060000281CF8E76060201C38BDC046E0460200A8
:1006100010B5041CFFF7EAFF201C01F04DF9201C67
:1006200010BD000038B5074B041C0360406800286B
:1006300004D0056901F040F9281CF8E76060201C2F
:1006400038BDC046F046020010B5041CFFF7EAFFB3
:10065000201C01F031F9201C10BD000038B5074BFB
:10066000041C03604068002804D0056901F024F9E7
:10067000281CF8E76060201C38BDC046A047020077
:1006800010B5041CFFF7EAFF201C01F015F9201C2F
:1006900010BD000038B5074B041C036040680028FB
:1006A00004D0056901F008F9281CF8E76060201CF7
:1006B00038BDC046B047020010B5041CFFF7EAFF82
:1006C000201C01F0F9F8201C10BD000038B5074BC4
:1006D000041C03604068002804D0056901F0ECF8B0
:1006E000281CF8E76060201C38BDC0465048020056
:1006F00010B5041CFFF7EAFF201C01F0DDF8201CF8
:1007000010BD000038B5074B041C0360406800288A
:1007100004D0056901F0D0F8281CF8E76060201CBF
:1007200038BDC046E047020010B5041CFFF7EAFFE1
:10073000201C01F0C1F8201C10BD00000F4B10B5AB
:10074000083303600E4B041CC3600130FF30FFF719
:100750006BFD0C4B201CE360B830FFF70FFF201C33
:10076000AC30FFF75FFF201CA030FFF73FFF201CDD
:100770006C30FFF71FFF201C10BDC0461849020057
:10078000C84502001047020010B5041CFFF7D6FF51
:10079000201C01F091F8201C10BD000038B5051C8C
:1007A000FC35AC6B002C0DD1242001F079F8064B00
:1007B00044608361054B8460C46004614461C4612A
:1007C0000360A863A86B38BDA04702008048020000
:1007D00038B5051CFC35AC6B002C0DD1242001F084
:1007E0005FF8064B44608361054B8460C46004611C
:1007F0004461C4610360A863A86B38BDA0470200D0
:1008000080480200F7B50379071C0E1C151C002B4D
:1008100006D00023019300930A246B461C7109E063
:1008200000F052FB041C0C20002C0CD101233B7166
:1008300000940194301CFDF7BDFBEB680090694605
:10084000281C9847201CFEBD10B500211F22041C47
:1008500002F061F80023E37710BD000013B5041C1B
:1008600001F0D8FC094B201C23601830002301A99B
:100870000422019302F046F8019B002B00D0044BA8
:100880006362044B201C236016BDC046E84E020084
:10089000B3DA0100004F020008B5FEF73DFC08BDC9
:1008A00000487047BC2A002000487047BC2A00203E
:1008B000F0B53D4B3D4A0833061C0360C26000237F
:1008C000A0221636011C428285B0041C037183608D
:1008D00003748382321C35310023137001328A4243
:1008E000FAD180258021C901AD00201CF3770A1CB4
:1008F000358438300093FDF787FB231C4033211CDF
:1009000003935F312A1C00251D7001338B42FAD1FD
:10091000039B201CDD77231C603319791A80FC228D
:100920000A409D701A711D72214B291CE3662567D0
:100930000C22783001F0EFFF231C88331D60271C48
:100940001C4B0837FB678437291C381C0C2201F02C
:10095000E2FF194B194AFB60231CA0333D611A606A
:10096000174A5D60DA60174A1D619A61DD61301CCB
:10097000FFF76AFF0398FFF767FF134B601CE36004
:10098000231CC4331D705D709D70FF30FFF766FF40
:10099000231C0122FE3352425A85201C023B1D6358
:1009A0005D639D6305B0F0BD184902001047020069
:1009B000D04602009FE7010091E70100E0460200F7
:1009C000F046020000470200C8450200314B70B5F6
:1009D0000025041C0E1C036085710583291C0C2254
:1009E0001C3001F098FF2C4BE562A362231C3033CE
:1009F0001D70201C231DDD87291C44300C2201F0B2
:100A00008AFF264B65652365254BA6652360231C5D
:100A10005C331D705D709D70DD70261C251C60357B
:100A2000C036281C0021FDF733FB0023AB82EB828C
:100A30001835B542F5D1A8225200A618281C00216D
:100A4000242201F068FF281C2435FEF7D4FFB542AC
:100A5000F4D1A82300215B00E150B422231CFC3315
:100A600052009965D965196659666C61A15019677C
:100A700059679967D967A3185C61C0235B00E018C8
:100A8000FEF78EFDCA225200A018FEF7B4FF201C0C
:100A900070BDC046204802003DEE01004BEE010053
:100AA0006048020070B5061CFC36756B002D1CD129
:100AB000B420800000F0F4FE0D4B041C43600D4B8D
:100AC000856003610C4B4561C3610C4B0562836219
:100AD0000B4BC5620360211C3430FFF777FFF62310
:100AE0005B00E018FDF77AFB7463706B70BDC04665
:100AF000D0470200C04702004048020050480200B0
:100B000058460200264B70B50360264B00258360D3
:100B1000254B041C4361254B05710362244B457131
:100B2000C362C560856145620563291C3830FEF7E4
:100B300037FD201C291C4C30FEF732FD201C291CDF
:100B40006030FEF72DFD1B4B251C2360231C7435E4
:100B5000C433002204C59D42FBD1B221490066186E
:100B6000281C00210822083501F0D5FEB542F7D136
:100B7000C2235B00E218002308C59542FBD1C222C4
:100B8000C32152004900A3546318CB2149006218C5
:100B90000021198002339342FAD1201C70BDC04657
:100BA000F0470200B0470200C0470200D0470200F1
:100BB000E04702009846020038B5041CFC34236B61
:100BC000002B07D1CC20400000F06AFE051CFFF787
:100BD00099FF2563206B38BD38B5041CFC34236BAA
:100BE000002B07D1CC20400000F05AFE051CFFF777
:100BF00089FF2563206B38BD70B5031C0A1C70CAC1
:100C000070C3C9680023C160036170BD08B581303D
:100C1000FF30FFF7F1FF08BD30B587B0051CFEF7C8
:100C2000D1F9041E24D12B1C5C33187058709870B5
:100C3000D870A8235B00E850EA1801235B42536098
:100C40009360D3601361B4225200A850B4225200C2
:100C5000AA18211C53609360D360136101A8FEF7AA
:100C60009FFCC0214900681801A9FFF7C5FF00E0FB
:100C70000624201C07B030BD10B5054C201CFFF722
:100C800017FE201C0349044A01F0B4FD10BDC04604
:100C9000BC2A00203D0702000028002070DF7047BA
:100CA00071DF704760DF704708B5FCF739FC08BD9D
:100CB00008B5FCF751FE002008BD0000F0B5041C8B
:100CC0008BB0FBF74BFE201C00F062F90020FFF711
:100CD000EBFD0368061C1B6998473368051C9B697C
:100CE000301C9847336801905B6A301C9847031C9E
:100CF000208810380B2800D9DCE002F0A5FA06584D
:100D0000DBDBDB97DBDBDB9EDBBBA688281C311C37
:100D1000277DFDF7DAFE607B2B1C58330090187896
:100D20000122904302221043A179023B9870187867
:100D3000009A013018706B461E82D9749F7405A802
:100D40000023694603704B7569468B756946CB7500
:100D500006A90B7069464B7669468A7607AACB7658
:100D6000137008AA4B778B77CB771370231C16333D
:100D7000E11D06226E4609931B3601F0C3FD211CBE
:100D8000301C0E310622943501F0BCFD6B68AB605F
:100D9000A868002800D18DE0C36804A99847AB6813
:100DA000002B02D16868A860F2E71B69EFE7281CF6
:100DB0004349A788FDF789FEA179336800911B6A32
:100DC000301C9847F6225200061C391C8018062257
:100DD000FDF701FB338FBB4204D1736B301C343001
:100DE0009B6898472A1C56321378013BDBB213707C
:100DF000002B05D12B1C58331A7802218A431A7014
:100E0000A035009869686B461F829874A960A8682D
:100E100000284FD0C36804A99847AB68002B02D1C3
:100E20006A68AA60F3E71B69AB60F0E75B69A088BA
:100E3000A11D002B3ED098473CE0A679002E05D19D
:100E40002B1C58331A7801218A431A706B6E002BC1
:100E500030D01C4A002A2DD0AB66A86E002829D0BD
:100E6000C368311C9847AB6E002B01D16B6EF3E762
:100E70001B69F1E7A37B68465A07910FDA08677B85
:100E800001700272E11D04A80622DE0701F03AFD9E
:100E90006B461878197AF60F187659769F75DE75B5
:100EA000231C0F3307932B1C8C33281C80301B68AA
:100EB00004A998470198211CFEF75EFC0BB0F0BD19
:100EC000FFFF0000B9ED01001FB5A3238022DB0066
:100ED000D205D3580D20DA0700D508201C49482236
:100EE0001C4BFCF78FFD00280BD080B2002808D1E6
:100EF000BFF34F8F184A194BDA60BFF34F8FC046CC
:100F0000FDE7002302A80293436001230370FFF76B
:100F1000C9FE002801D0072017E06846FFF7C0FE91
:100F20000028F8D16946FFF7B9FE0028F3D10C4834
:100F3000FCF798FD80B2002807D10A48FCF79CFD19
:100F400080B2002801D100F0E5F805B000BDC04630
:100F5000142C0020B10C02000400FA0500ED00E0A2
:100F6000BD0C0200A90C02007047000080B20028EE
:100F700008D1BFF34F8F044A044BDA60BFF34F8FA1
:100F8000C046FDE77047C0460400FA0500ED00E0EA
:100F90007FB5051C0020FFF787FC0368041C1B6954
:100FA00098472368201C1B6A9847061C041C288845
:100FB00034363038082800D99AE002F045F905990E
:100FC0001384212D99486500EB88002B05D1291C3D
:100FD0000C31301CFEF772FD8AE0636B301C9B689D
:100FE000984785E0EB88002B05D1291C0C31301C7B
:100FF000FEF7E6FD7CE0301C0021FEF7ABFE77E05B
:10100000636B301C5B689847002871D0291C0C3139
:10101000301CFEF733FE6BE0AB886A461380AB8969
:101020005380EB8993802B8A12350295D380A36875
:10103000E360E06800285BD0C36869469847E368CE
:10104000002B02D1A268E260F3E71B69F0E7AB88EE
:101050006A461380AB895380AB7B13712B8AD38094
:101060006B8A1435039513816369A361A069002815
:101070003ED0C36869469847A369002B02D16269D4
:10108000A261F3E71B69F0E7AB886A461380AB897E
:101090005380AB7B13712B8A12350295D380236A60
:1010A000002B25D0164A002A22D06362606A0028ED
:1010B0001ED0C36869469847636A002B01D1236A32
:1010C000F3E71B69F1E7F622EB885200A018A98824
:1010D000002B05D085225200934206D1002205E064
:1010E0002A1C0C32FDF78AF902E00B22FDF773F996
:1010F000301CFEF747FF301CFEF7C8FE7FBDC04620
:10110000B9ED010077DF704778DF70477ADF70470D
:101110007CDF70477FB5002302AC03932823134D77
:101120002380C8235B006380E38001AE1123281C69
:10113000337001F04BFD291C82B2301CFFF7E8FF31
:1011400080B200280FD180208000FFF7DDFF80B241
:10115000002808D1201CFFF7D9FF80B2002802D157
:10116000FFF7D0FF80B204B070BDC04658490200FE
:101170007EDF704768DF704738B500200C1CFFF732
:1011800093FB03685B6A98472378051C142B17D0E0
:1011900002D8132B05D042E0152B16D0222B38D0C5
:1011A0003DE063686C6818889B78D9079A07C90F77
:1011B000DB06C9B2D20F5B0F002C30D0A0472EE067
:1011C000636818889978AB681FE0626891780B09AA
:1011D0000907090F012902D0022908D010E0013BBC
:1011E000DBB20021022B0ED80E49C95C0BE0012BAB
:1011F00008D0023B5842434105215B42194002E0BE
:10120000002100E004211088EB68002B07D09847EC
:1012100005E0636818882B69002B00D098470020F0
:1012200038BDC0465E490200014B18787047C04681
:101230005D2C0020F0B51C1C2D4B87B001921A7854
:10124000071C00200D1C824250D1FCF79BF900289E
:1012500046D1002C0FD0222003A90394FFF78AFF68
:10126000002808D0082804D01138434258410430DF
:101270003CE006203AE000236846037202A8FBF730
:10128000E3F9011E2CD11B4E012433782540A343E2
:101290006A0027401D1C3D43019B02270720BD43D8
:1012A000034015431C22BB4095431D43357003ADDD
:1012B0000C22281C01F02FFB0F4B6846311C052225
:1012C000113003932F7101F01DFB0C48291CFBF713
:1012D0002DFA031E06D0042807D00620082B05D0BF
:1012E0000B2003E0024A147000E0072007B0F0BDB5
:1012F0005D2C002004280020791102005C2C0020C5
:1013000008B50848FBF7DAFA0023984207D004280A
:1013100004D00623082802D00B2300E00723181C62
:1013200008BDC0465C2C002073B500230193104B10
:1013300001AD1B780E1C291C2B70FBF7CFFC041E83
:1013400004D00B23052810D104230EE0281C311CE7
:10135000FBF726FA231C002807D0042804D0062314
:10136000082802D00B2300E00723181C76BDC046D6
:101370005C2C002073B5114C0D1C061C211C68460A
:10138000052201F0BFFA012D06D0022D13D12378DA
:1013900001221343AB4303E023780222AB43934380
:1013A000301C69462370FFF7E3FE421E90410B2379
:1013B0004042034000E00223181C76BD04280020B0
:1013C00008B5094B011C1A780923002A09D00748DF
:1013D000FBF71EFA0023984203D006230E2800D103
:1013E0000323181C08BDC0465D2C00205C2C002087
:1013F00008B5FBF7C2FC08BD08B502230B708E23AD
:101400000B714F234B710A1C7C238B710132043109
:10141000FBF78AFC08BDA2DF7047A3DF704763DFDC
:10142000704710B586B06C46073400232370C15C4A
:1014300002AA99540133102BF9D1101C211CFFF77B
:10144000EEFF0023984200D12378181C06B010BD8F
:10145000F0B5061C3378408A87B0012203900192D0
:10146000002B1DD0254BB7181868002202901C1CB9
:10147000029B9A4220D011215143214D002369182B
:10148000981E012804D9C85C8446F85C844511D1B3
:101490000133102BF4D111235A43AD182D7C019543
:1014A00001986B46987505AB5888039A0004104361
:1014B00007B0F0BD0132DBE7381CFFF7B2FF33782D
:1014C000051C0190002B01D1371C1237029804280B
:1014D000E6D0029A11205043094E391C30181022D0
:1014E00001F010FA236811275F430022F619013337
:1014F000B270F27035742360D2E7C046602C0020D1
:10150000642C0020F0B599B01E1C1EAB019102CBDB
:1015100069461B881F31029320AB1B8809AC0393DB
:1015200021AB1B780A70049323AB1D8824AB1B7876
:101530000122059325AB1B78071C201C069301F0A4
:10154000E1F9227830231A4211D00AAC002103229B
:10155000201C01F0E0F9A3780622934302221343F2
:101560001022A370111C012319432170617011AC6A
:1015700000211C22201C01F0CEF909AB1A78302181
:10158000227000230A4200D00AAB6361002D05D00F
:10159000229B002B02D06360258165810BAC002368
:1015A000059823800699012318401940C0000901BD
:1015B000C0B2084304991940022303430B43A370AC
:1015C00032231A421ED0701E04281BD821780F2304
:1015D000994301F039FE0305070C1100012007E0D3
:1015E00001200AE0012001430B40302108E00220E5
:1015F00001430B40102103E0022001430B40202156
:101600000B4323700C231A421ED0701E04281BD8D3
:1016100062780F239A4301F017FE0305070C1100AF
:10162000012107E001210AE001210A431340302291
:1016300008E002210A431340102203E002210A437A
:1016400013402022134363700CAD281C0021142288
:1016500001F061F90199029B0C912B8103991E9B6A
:10166000A9812B61381C11A92A1C269B6C60FFF7ED
:10167000D2FE80B219B0F0BDF0B589B000930EABC8
:101680001B88161C01930FAB1A7801230F1C1A40FC
:101690000221051C0A4368468272191C102203AC01
:1016A0001143017241721422201C002101F033F910
:1016B000009A02A9019B61602281281C211C109ABA
:1016C0000397A3812661FFF7A8FE80B209B0F0BDA1
:1016D00010B5084C201C00F09DFD074B201C183055
:1016E00000212360FCF702FA201C0449044A01F09F
:1016F00081F810BDA82C0020E84E0200BDDA0100E0
:101700000028002038B50023C356041C0D1C0133EB
:1017100004D106480649242200F0ACFD6368002D80
:1017200001D0E26800E02269136038BD0C45020078
:101730006149020000B599B06846122100F04FFEE1
:1017400006A8132100F04BFE0CA8122100F047FE62
:1017500012A8132100F043FE68460121FFF7D2FFD3
:1017600006A80021FFF7CEFF0CA80021FFF7CAFF53
:1017700012A80121FFF7C6FF962000F0E7FE684699
:101780000021FFF7BFFF06A80121FFF7BBFF0CA850
:101790000121FFF7B7FF12A80021FFF7B3FF962042
:1017A00000F0D4FED8E7000070B5051C0C1CA0B0FA
:1017B00000F082FD291C6846221C01F015FD051E63
:1017C00003DC00F0A7FD20B070BD0A4B0A4E1B6879
:1017D000002B04D1301C09210B2200F025FC002431
:1017E0006B46301C195D013400F0B8FCAC42F7D1F7
:1017F000E7E7C046E42C00201C2D00200FB407B5FD
:1018000004A901C90191FFF7CFFF03B008BC04B0E0
:10181000184708B5012001F00BF808B501F0CCF825
:1018200008BD08B501F01CF908BD08B501F07CF849
:1018300008BD704708B5FFF7FCFF08BD704770474B
:1018400008B5FFF7FCFFFFF7F9FFFCF75FF908BDEC
:101850000C4910B50B681818EFF30882904205D3B5
:101860000C220120084B40421A600AE0074A126825
:10187000002A04D0064C2468A2189042F0D20860D6
:10188000181C10BD0C280020242D0020D02C002076
:10189000D42C002008B5002801D0FFF74BFFFEE74D
:1018A00010B501F001F8041E02D1024800F0F4FC6A
:1018B000201C10BDE149020008B5002801D000F04D
:1018C000FDFF08BD0848026803210A43026007497A
:1018D000074A084B9B1A03DD043BC858D050FBDC79
:1018E0000548804705480047240500403451020060
:1018F00000280020982800200D19020021C10100B5
:10190000FEE7FEE7FEE7FEE7FEE7FEE7334A10B537
:101910001378111C012B19D1314B1B681B0715D1F2
:10192000304BE0241A68F023101C184022420BD1DF
:101930002D4A12681A4209D12C4A2D4B1A60802276
:101940002C4B12021A6001E03028F1D00B68DBB298
:10195000012B0DD1224A1268120709D1F021214A28
:1019600012680A40402A03D11F4A12680A422DD049
:101970008022A32301210020D205DB00D1501E4B81
:10198000986091601D4A9968002925D1C831C046E8
:10199000C046C046C046C046C046C046C046C04617
:1019A000C046C046C046C046C04601390029EED1F7
:1019B000013A002AE7D18021A320C905C0000A50BE
:1019C00001328A609A68002AFCD005E0C122802199
:1019D000D200C9058B50CBE710BDC046E00F00F028
:1019E000E40F00F0E80F00F0EC0F00F0DFFF07C09D
:1019F00004050040186C0040FC0000408813000003
:101A000070B5134C051C0E1C081C211C00F0F8FCC2
:101A10002860431C04D10F480F492D2200F02AFCF6
:101A2000211C0023CB565A1C05D0B34201D18B6830
:101A300002E00C31F5E70023A0210120074AC9008C
:101A40002B7150506A211B020B430549535070BD46
:101A5000EC4A0200664A02007E4A02000070004022
:101A6000040500000C4B0D4A10B50D499C5821404F
:101A7000995001799C580902214399500021094A43
:101A80005160013119605368002BFCD0A123024A38
:101A9000DB00D05880B210BD00700040040500008B
:101AA000FF00FFFFFC70004001704B1C0AD00123B7
:101AB0008B404360044BC360044B0361044B4361A0
:101AC000044B83607047C046080500500C05005069
