:020000021000EC
:10C00000004000208D1D0200C91D0200CB1D020052
:10C010000000000000000000000000000000000020
:10C02000000000000000000000000000CD1D020024
:10C030000000000000000000CF1D0200D11D020022
:10C04000D31D0200D31D0200D9250200D31D02001A
:10C05000D31D020000000000D31D0200D31D02000A
:10C06000D31D0200D31D020069200200D31D02006F
:10C07000D31D0200D31D0200D31D0200D31D0200F8
:10C08000D31D02007D2C0200D31D0200D31D02002F
:10C09000D31D0200A9C101008DDA0100D31D0200E9
:10C0A000D31D0200D31D02000000000000000000AC
:10C0B0000000000000000000000000000000000080
:10C0C00010B5064C2378002B07D1054B002B02D06E
:10C0D000044800E000BF0123237010BD9828002011
:10C0E00000000000F055020008B5084B002B03D0FB
:10C0F0000748084900E000BF07480368002B03D049
:10C10000064B002B00D0984708BDC0460000000039
:10C11000F05502009C280020982800200000000014
:10C12000164B002B00D1144B9D46402292029A1AC6
:10C13000924600218B460F461348144A121A06F005
:10C140004EFE0F4B002B00D098470E4B002B00D01B
:10C1500098470020002104000D000D48002802D05F
:10C160000C4800E000BF06F0DDFD2000290005F0CE
:10C17000CBFD06F0C1FDC0460000080000400020D5
:10C1800000000000FD1C020098280020282D00203F
:10C1900000000000000000002EDF704732DF704713
:10C1A00033DF70474CDF704708B5054B01201A7824
:10C1B00050401870034B1B68002B00D0984708BDF7
:10C1C000B8280020B428002038B50C4B051C1520D9
:10C1D0000C1C1A60FFF7E2FF00280ED11520291C65
:10C1E000FFF7DEFF002808D11520FFF7D5FF002854
:10C1F00003D10320211CFFF7D5FF38BDB428002050
:10C200007FDF704782DF7047A7DF7047A9DF704785
:10C21000AADF704700207047002070470020704759
:10C2200000207047002070470020704700207047B2
:10C23000F7B5041C0F1C6A468178224801F044FAC5
:10C2400000283DD162780C214A431F4B9A18927AFC
:10C25000530605D4022F03D0012F03D11B4D02E05A
:10C260001B4D00E01B4DA1781C2671431A4B6846FC
:10C270005918321C0023A847002813D1022F1FD0C1
:10C2800063780C225343104A4021D3189A7A6846A7
:10C290008A439A726178114B7143321C5918331CCE
:10C2A000A84701E0022F0BD023780C2253430C4AFD
:10C2B0006846D3189A7A0B4B9200D358211C9847A2
:10C2C000F7BDC04644290020BC28002019D7010032
:10C2D00099D7010015C20100C828002000290020BC
:10C2E000342900208C490200F7B5019043781821C9
:10C2F0005943264A264F50184468002C0FD00C2072
:10C3000058433818807A45B2002D07DA450605D41F
:10C310000E1C0836A5B296198C5802E00024251C84
:10C32000261C0C225343FB181889311C2A1C231C81
:10C33000FFF76CFF0B280BD1019A311C53780C22AC
:10C340005343FB1818892A1C0123FFF75FFF0124C0
:10C35000002800D00F48012C17D1019D0C216B78CB
:10C360000D4A4B43FB181889FFF74EFF00280CD0ED
:10C370000A4B984208D0082806D0094B984203D0AF
:10C38000112801D0002000E00248FEBD1C29002039
:10C39000BC28002041800000FFFF000002300000A8
:10C3A0000430000008B5FFF79FFF08BDF0B589B065
:10C3B0006D460E350E23019000912B804B780C2199
:10C3C0004B43234A04A9D31818892A1C0323FFF7D7
:10C3D0001FFF002839D1009B182658781D4F704345
:10C3E000083004A938182A8806F0E1FC00993C1CA2
:10C3F0004B7800280DD10C225A4315498A18917A9E
:10C400000222114021D17343321CF81806F0E7FCD8
:10C410001BE05E43BE197268002A01D00E4F00E097
:10C420000E4F182673430322E2502A88E11808337E
:10C430004A60E01804A906F0C9FC009A01985178F6
:10C4400038237143321C6118B847002009B0F0BD91
:10C45000BC2800201C29002099D7010019D7010011
:10C4600008B5FFF7A3FF08BD70B5031C4878182472
:10C470006043094D0E1C2818191C221C382301F09A
:10C48000CBF9002806D173785C432D196B68013312
:10C4900000D1686070BDC0461C29002008B5FFF7B8
:10C4A000E3FF08BDF0B51D1C434B161C1A6893B082
:10C4B00001900F1C002A7CD01898542879D803AB1F
:10C4C000FF22002469465A709A70DA701C700C764C
:10C4D0000B950A90A1B2394804AA01F0F5F800289A
:10C4E00009D1019804A9082206F061FC002802D1B4
:10C4F00003AB9C7002E00134022CEBD103ACA278B8
:10C50000FF2A56D0032F0AD1189A06AB542A01D11C
:10C51000202200E040221A701A7803213BE0284BC9
:10C52000EB1A372B11D8274B002E04D101211868A4
:10C53000914008423DD0012191400A1C1968914365
:10C540001960202206AB1A7020E01F4BEB1A1B2B40
:10C5500009D806AB20221A70002363700CAB0B9332
:10C5600018230A9312E019482D1A172D21D83023C9
:10C570006A461376002363700123E370144B997AA3
:10C580000223194002D1182206F029FC06AB022F23
:10C590000CD11A7801210A4307481A7009AB079396
:10C5A00006A90368321C201C984702E01A78022171
:10C5B000F1E713B0F0BDC046342900204429002023
:10C5C000C828002040290020002900201C29002024
:10C5D000BC28002070B51C2444430E4E051C3019A5
:10C5E000002134190622113006F0F9FB201C00212D
:10C5F000102206F0F4FBFF232374A37601235B4291
:10C6000023830122044BAA40151C1A68AA431A600E
:10C6100070BDC046C82800204029002037B581B22F
:10C62000051C6A46074801F04FF8041E08D1684609
:10C63000542101F03BF9041E02D1281CFFF7CAFF68
:10C64000201C3EBD44290020F0B5061C85B0002802
:10C6500057D02D4B2D48012500246F421C605C7281
:10C660009C72211C0781C7720722857206F0B7FBF6
:10C67000211C1822264806F0B2FB201CFFF7AAFF57
:10C68000244CFF23281C2370FFF7A4FF6A46542381
:10C6900067709380204C0223D380204B6846211C76
:10C6A000009300F0B1FF271C00282BD11C4A3378DF
:10C6B0001570151C002B1BD11C1CA1B2381C02AA22
:10C6C00001F002F8061E0CD11C22131C634315480E
:10C6D00002A9C018331C01F09FF8002804D02E7066
:10C6E00010E000232B700DE00134022C0AD0E4E7A7
:10C6F0006B46D9889B88201C594389B201F0D6F833
:10C7000000E0094805B0F0BD34290020BC28002015
:10C710001C290020B928002044290020A5C40100BC
:10C72000BB280020C82800200E800000F8B5174B59
:10C73000071C1B780D1C002B22D0002822D00029BA
:10C7400020D00B68002B1DD0114C2668002E1BD169
:10C75000201C08C00531052206F038FB207A2B7911
:10C76000012188430222A3721043042398432072BC
:10C77000E07901430A439A43E271301C3E7004E0C1
:10C78000044802E0044800E00448F8BDBB2800204B
:10C7900034290020088000000E8000000480000082
:10C7A000154B1B78002B22D000281ED000291CD04E
:10C7B0000378002B1BD1114B1B68002B17D042783C
:10C7C000002A16D10E4B9B7A012B12D02420184040
:10C7D00003D001230B70101C0CE05BB2002B02DABB
:10C7E00002230B7006E0087004E0064802E00648E9
:10C7F00000E006487047C046BB28002034290020CE
:10C80000BC2800200E80000008800000108000007E
:10C81000234BF0B51B78002B25D0002821D0002910
:10C820001FD00B68002B1CD08D68002D19D0037809
:10C83000002B18D11B4A1268002A14D01A481A1C5F
:10C8400010301C1C194DEE7AB3420ED1AD7AAE07F2
:10C850000BD501331C30022BF4D10C710A7300206C
:10C860001CE013481AE0134818E00D7BAA420AD2D4
:10C87000857AEE0707D4061C8F689500103EEE51AE
:10C880000D4DAB5401320D79AC42E2D2857AAE0740
:10C89000DFD40F68A500E8510134DAE7F0BDC046E7
:10C8A000BB28002034290020C8280020BC280020F4
:10C8B0000E80000008800000B9280020104B10B541
:10C8C0001B78002B19D0002815D00078002814D12F
:10C8D0000C4B1B68002B10D00B4B9A7E1C1CFF2AA4
:10C8E00001D0FFF79BFE36342378FF2B06D00120C2
:10C8F000FFF794FE02E0054800E0054810BDC04681
:10C90000BB28002034290020C82800200E80000009
:10C910000880000013B5041C81786A460B4800F0BB
:10C92000D3FE002810D160781C235843084A69467A
:10C9300010181A1C00F070FF064B68469A7A064BD6
:10C940009200D358211C984713BDC04644290020AB
:10C9500000290020342900209C490200F0B5C84A73
:10C960008FB01278FF23061C0393002A00D1B3E195
:10C97000C44A1168002900D1AEE104AD05AF6B7067
:10C98000AB70EB70031D7B602A233B813388002052
:10C990002870BD4C102B21D0A27AB188900707D502
:10C9A000BA48814200D141E12089884200D13DE16D
:10C9B000172B00D1A8E007D8132B50D0142B2BD065
:10C9C000112B00D088E10EE01C2B00D114E1522B7A
:10C9D00000D109E1182B00D07EE1E0E0A37AD9076D
:10C9E00000D528E178E10223111C9943A1721007B8
:10C9F00007D54BB2002B0BDA281C0021FFF718FCDF
:10CA000006E0A878FF2803D0FFF7E4FDFF23AB7012
:10CA10001023A3721223F0E0E37A9D4FFF2B13D172
:10CA2000F389398B994204D0B98E99420CD10123F4
:10CA300000E00023082103930A43DBB2E372A272F1
:10CA4000281CAB70FFF766FFE37A0021FF2B00D0B4
:10CA50009049B0883A1C0023FFF7D4FB3CE13B70BF
:10CA600004231A43E37AA272FF2B25D188498B7ED7
:10CA7000FF2B06D00B1C36331B780127FF2B29D147
:10CA800000E0002723781C207843022B09D0804A3D
:10CA9000FD2310188376211C0722103006F096F92A
:10CAA00003E07B4B1818FE23837603AB1F700398BB
:10CAB000C3B2AB70E3720BE0774816230E22083046
:10CAC00000213B7006F08BF9A37A40221343A37236
:10CAD000002400E0714C00216B4B0B91DB7A1C228F
:10CAE00053436B4A0D91D3180C936A4B654A0893D4
:10CAF00009910A91B088043208ABFFF781FB002846
:10CB000000D0E9E0221C7AE05E480121437A8B43A1
:10CB1000437204239A431423A2723B70B379002B0F
:10CB200004D0E07AFFF77AFDB27968E0F37959072B
:10CB300064D5AB78FF2B61D008210A43F17AA27249
:10CB40008907C90F012906D11C225A43504882186F
:10CB5000907E88439076E27AFF2A4FD021784C4A23
:10CB60001C2602290CD05E439619301C0722103077
:10CB7000211C06F02BF9B37E02229343B37609E021
:10CB800073434449D318498A1A1C19839B7E012197
:10CB90008B439376281C0121FFF74AFB2EE0B379E3
:10CBA000112B13D1130711D53B480E220830002159
:10CBB00006F015F916233B70A37A6022134331481F
:10CBC000A372437A02221343437217E080235B422D
:10CBD0001A432C4915233B70A2728A7A304B92007B
:10CBE000D358281C984709E0264B281C9A7A2C4BCE
:10CBF0009200D35898476FE013233B7000222148DE
:10CC000005AC0368211C281C98472378122B63D19C
:10CC10001D48837A012B5FD0012383725B4203811D
:10CC2000C3720021072206F0DAF855E0E17AA97014
:10CC300000216970BCE61123002169703B70B38844
:10CC4000B21D23810223A3720192111C201C072212
:10CC500006F0BCF8737DD80706D5124A5B08D35C92
:10CC6000FF2B2DD003932BE0094E00271036019A9D
:10CC7000002A19D13289054B9A421CD103971FE033
:10CC8000BB28002034290020BC280020FFFF000022
:10CC9000C8280020002900201C2900204380000013
:10CCA0007C490200B9280020301C0199072206F0B7
:10CCB0007EF80028E2D001371C36022F9ED0D6E73E
:10CCC000A27A03980821C3B20A43E372A272281C15
:10CCD000AB70FFF71FFE91E70FB0F0BD30B5002934
:10CCE00012D00A78002A11D10A4B1B68002B0DD0F4
:10CCF000FF23094C8B7025890523854207D14A7093
:10CD0000E37A8B70131C02E0044B00E0044B181C08
:10CD100030BDC04634290020BC2800200E80000011
:10CD2000088000004DDF704730B500238DB00D1C2A
:10CD3000141CC21AD27B69465A540133102BF8D105
:10CD4000002104A80D2206F04AF82B786A46D37712
:10CD50006B7868469377AB785377FFF7E3FF6B46C2
:10CD60002F331B7823706B462E331B7863706B4612
:10CD70002D331B78A3700DB030BD30B50378041C83
:10CD800085B00D1C0020022B16D1611C032201A8C6
:10CD900006F01CF8211D032203A806F017F8281C32
:10CDA00003A902AAFFF7C0FF01A802A9032205F008
:10CDB000FEFF43425841C0B205B030BD08B5064B36
:10CDC000586980235B05421C04D0196989B206F0BA
:10CDD000A9FC00E0586908BD0010001029DF704769
:10CDE00028DF704708B5034B1A78034B9200D358DD
:10CDF000984708BD94290020AC49020037B50B1CA8
:10CE0000074C89680C254D4324681978021C181CAE
:10CE10001B690094034C08302C59A04737BDC0460D
:10CE20009C2900208029002008B5104A142113787D
:10CE30004B43D318802218695205116904335A886C
:10CE400001389B888018C01889B206F06BFC084A2C
:10CE5000031C126801209A4207D300209A4204D191
:10CE6000044B186843425841C0B208BD4C29002009
:10CE7000782900207C29002008B5044B0822196875
:10CE800091431960FFF7AEFF08BDC046902900200E
:10CE9000094A08B5136819070AD4990702D5012170
:10CEA0000B431360054B02221A70FFF79BFF01E052
:10CEB000FFF7E2FF08BDC04690290020942900201A
:10CEC00008B5064B1B681A0705D4054B01221A70DA
:10CED000FFF788FF01E0FFF7CFFF08BD9029002092
:10CEE0009429002008B5002814D0112805D10A4B38
:10CEF000082219680A431A600CE0084B14211A78BA
:10CF000051435B18191DFFF779FF054B04221A7076
:10CF100000F096F808BDC046902900204C2900205A
:10CF20009529002008B5FFF759FFFFF7DBFF08BD83
:10CF3000F8B5134B14241A78802554436D051C1939
:10CF400004342F696288BFB2A088E36821690D4E5E
:10CF5000BA420DD92C69C018A4B2121B2C698018D2
:10CF60008918A2B29208FFF7DDFF2B699BB204E09B
:10CF7000C0189208FFF7D6FF63883360F8BDC0463B
:10CF80004C290020A829002038B50A4A80246405CD
:10CF9000236915689BB2013D5D43FFF70FFF2169CF
:10CFA000054B013889B241431A68281CFFF7BAFFC4
:10CFB00038BDC04678290020A429002070B5104A49
:10CFC0001421137880254B43D3181A89DC88043345
:10CFD000DB686D05A4182969E418201C89B206F0E5
:10CFE000E5FB0E1CFFF7EAFE2969013889B24143CF
:10CFF000044B89191A68201CFFF794FF70BDC046C6
:10D000004C2900207C29002010B5FFF7D7FE802393
:10D010005B051C6919691A69431EA0B25843044B89
:10D0200089B21B6892B259439208FFF77BFF10BD8B
:10D030007829002008B5FFF7D3FEFFF753FF08BD9E
:10D04000F0B52B4B85B0187803284FD806F060FB5D
:10D05000020E114A274A00231360274A1360274B08
:10D060005B78002B42D000F0DFF83FE0FFF760FF75
:10D070003CE0234C01232268142601929A431F4B63
:10D08000226002921A78802756437F059E193369E1
:10D090003969181C89B2039306F044FB194B051C2F
:10D0A000186003983969F3880138C01889B206F00E
:10D0B00039FB854203D1029A0223134303E0019A0C
:10D0C00003239A43131C23600F4B1A680F4B002A4B
:10D0D00003D121680222114200D000221A70FFF70A
:10D0E00081FE03E0074B1868FFF7A4FF05B0F0BD11
:10D0F00095290020A0290020A82900204C290020E3
:10D100009029002078290020A429002094290020BB
:10D11000F0B53F4A1421137885B04B43D318D86833
:10D120000C22424302903B48802582185489108982
:10D13000526860436D05821829690192DA881E6978
:10D1400003921F89344CD3199B1900930023236049
:10D1500089B2301C06F02AFB00290AD12B690398FA
:10D160009BB2984208D00099019A914201D1002FB8
:10D1700002D0029B022B08D12969301C89B206F02B
:10D18000D1FA264B186003233CE02969B81989B20B
:10D1900006F00CFB224B89081960009A019B802441
:10D1A000640529699A422CD089B2101C06F0FEFA57
:10D1B000002926D0019A0098216985B289B290B2DF
:10D1C00006F0B0FA2769061CB9B2281C06F0AAFAC4
:10D1D000B6B280B2864208D1019B00989AB283B25F
:10D1E000D31A0D499B080B600BE023692169281CA9
:10D1F00089B29CB206F0DAFA89B2641A064AA40827
:10D200001460022307480370FFF71AFF05B0F0BD52
:10D210004C290020802900207C290020782900202A
:10D22000A42900209529002008B50B4A1421137861
:10D230004B43D318D988094A1B791160032B08D0B6
:10D24000042B06D0012B06D1054A1370FFF7F8FE18
:10D2500001E0FFF75DFF08BD4C2900209C2900205C
:10D2600095290020F7B508AC2488114D01946E78FB
:10D270000424022E19D02C78A419012C00D9023CC8
:10D2800014277C432C196261221C20710C3281C945
:10D2900081C2E380074B01981B782081013600246E
:10D2A0006E70A34201D1FFF7BFFF201CFEBDC04638
:10D2B0004C2900209529002038B5124C14252178DE
:10D2C0000020694361180431FFF798FD21782A1C7A
:10D2D0004A430023A21801251371D380D56013613E
:10D2E000536113816278013A62704A19D2B2022AFC
:10D2F00001D0227000E02370034A1370FFF7A0FEF4
:10D3000038BDC0464C2900209529002008B5084B9F
:10D3100014211A784A439B181B79042B02D0FFF77B
:10D32000CBFF04E0034B01221A70FFF789FE08BD12
:10D330004C29002095290020F8B51F4D08242E689F
:10D34000344023D11D4A142113781D4F4B433F68AD
:10D35000D31880211869DA88490504339B88096944
:10D36000002F16D001388018C01889B206F0DAF9FB
:10D37000144B1B6883420CD1134B1C6001231E43CA
:10D38000124B2E601C70FFF72DFD13E0FFF774FDAC
:10D3900010E0FFF749FD002804D00B4B00221A6073
:10D3A000022202E0002F03D00322084B1A70EAE7A2
:10D3B000FFF7ACFFF8BDC046902900204C290020A3
:10D3C0007C29002078290020A4290020942900200D
:10D3D00008B5054B1B681A0702D4FFF797FF01E059
:10D3E000FFF74AFD08BDC0469029002038B5154D0D
:10D3F0002C68220723D4144B1A6801321A60134B8D
:10D4000004221B68002B04D1FFF70EFD002802D078
:10D4100002220F4B0CE00F4B1B68002B0CD001219C
:10D42000221C0A400A4B02D10C432C6000E003226C
:10D430001A70FFF7D7FC04E0FFF768FF01E0FFF781
:10D440001BFD38BD9029002078290020A429002048
:10D45000942900207C29002008B51E4B1B78022B44
:10D4600030D0032B19D0012B32D11B4B08211A6865
:10D470000A4222D1194B14211A784A439A18184BA0
:10D48000D1881B68CB1A9BB2D380002B02D1FFF747
:10D4900013FF1DE0FFF74CFD1AE00F4B08211A683F
:10D4A0000A420AD10F4B1A6801321A60FFF7BCFC1E
:10D4B000002804D1FFF72AFF0AE08A431A60FFF729
:10D4C000BFFD05E0084B1A78084B9200D3589847E7
:10D4D00008BDC04695290020902900204C29002035
:10D4E000A82900207829002094290020C0490200A2
:10D4F00008B5024B1868FFF79DFD08BD782900208C
:10D5000008B5FFF75BFC80235B051A691969431EA8
:10D5100090B2584389B206F005F9FFF78BFD08BDBC
:10D5200038B5144C042523781A1CAA4321D00228AC
:10D530001DD003281DD1104A1268110717D40F49B6
:10D540000A6801320A60032A04D0022B0CD1FFF7CB
:10D5500049FC0EE00A4B14211A780D2051435B1848
:10D56000191DFFF74BFC2570FFF76AFD01E0FFF77F
:10D5700073FF38BD9529002090290020A0290020A4
:10D580004C290020174B10B5012200241C705C7040
:10D590001C71DC80DA601C615C611C811C765C8320
:10D5A0001A625C629C629C830F4B1C80FFF706FC36
:10D5B00080235B051A69831E90B258430B4B0422EB
:10D5C00018600B4B201C1C600A4B1C601C815C818A
:10D5D000094B1C70094B1C60094B1C60094B1A60FD
:10D5E00010BDC0464C2900208C290020982900201D
:10D5F000782900208029002095290020A0290020DA
:10D60000A8290020902900202B4BF7B51B680E1C81
:10D610000421041C08200B424DD0002C4AD0002EBF
:10D6200048D02268002A45D080277F053A69A38820
:10D6300092B2934201D907203DE00F2BFBD9E2883B
:10D64000002AF8D053431D490D685B190193FFF779
:10D65000B5FB3A69431E90B25843019A8242EAD818
:10D66000A3889907E7D1164A04201788012F22D0F2
:10D670000C20784313493760756026680A18556096
:10D6800046501381E088013750818022520558436B
:10D69000166911691469B2B28018013889B206F0AE
:10D6A0008FF8A4B24443054E054B651935601F80C1
:10D6B000002000E00E20FEBD9029002098290020C7
:10D6C0008C29002080290020114B30B51C680823CC
:10D6D00065071AD5002815D0002A13D00368002B3F
:10D6E00012D10C4C2568002D0ED025894068694365
:10D6F00009186089454360682D18A94204D2136057
:10D70000516002E00E2300E00723181C30BDC04624
:10D710009029002080290020F0B5141C1C4A051C0B
:10D72000126885B00F1C082051072ED5002F2BD072
:10D73000002D29D02A680720002A26D1154E3168ED
:10D74000002922D06A680392328971897668514330
:10D750008C4603996644B14217D2002C15D09442EE
:10D7600013D8E618964210DC0322102017420CD181
:10D7700013420AD1114208D10093291C3A1C231CE0
:10D780000120FFF76FFD00E00E2005B0F0BDC046A0
:10D790009029002080290020F0B5141C1C4A051C8B
:10D7A000126885B00F1C082051072ED5002F2BD0F2
:10D7B000002D29D02A680720002A26D1154E31686D
:10D7C000002922D06A6803923289718976685143B0
:10D7D0008C4603996644B14217D2002C15D094426E
:10D7E00013D8E618964210DC0322102017420CD101
:10D7F00013420AD1114208D10093291C3A1C231C60
:10D800000420FFF72FFD00E00E2005B0F0BDC0465C
:10D810009029002080290020F0B5161C214A85B0EF
:10D82000126802900D1C0824500738D5002931D009
:10D83000029900292ED02C68002C2DD11A4F3A685D
:10D84000002A29D0398978896A68484384467868EB
:10D850008444624520D2002E1ED08E421CD8F0187F
:10D86000884219DC02980321084217D10B4215D1D6
:10D870001140039112D19918321C05F0A7FA2968BA
:10D880000C234B430096FE58281C0221039A029B4E
:10D89000B04704E00E2402E0072400E01024201C1E
:10D8A00005B0F0BD9029002080290020F0B5204B64
:10D8B00085B01B68061C0D1C08245A0734D50028A7
:10D8C00031D003680724002B2ED11A4B1A68002A86
:10D8D0002AD01A894768029258685B8953431B18FB
:10D8E00003939F4220D21024BB071DD1381A111C6C
:10D8F00005F05CFF0724002916D1281C029905F0C9
:10D9000055FF89B200290FD1002D0DD0039AEB19D4
:10D91000934209D8002200920320311C2B1CFFF7F0
:10D92000A1FC041C00E00E24201C05B0F0BDC04684
:10D9300090290020802900202EDF704751DF70479A
:10D9400010DF704711DF704761DF704708B5081CB2
:10D95000111C03F05DFD08BDF0B5254B85B01B78AB
:10D96000002B42D0234E244F3268544254413A682F
:10D97000E4B255425541EDB2002C34D103A8FFF773
:10D98000DDFF05280AD0002804D0211C221C03F04A
:10D9900041FD04E003983368984700E00124002D1E
:10D9A0001ED1164B03A91B880B80154B1B68181C36
:10D9B0000193FFF7C9FF051E052D0BD0002805D0E8
:10D9C00000210A1C03F026FD002504E001983A68B6
:10D9D000904700E00125002CCED0002DCCD004E0F3
:10D9E000002C02D1C8E7002DDBD005B0F0BDC04649
:10D9F000AC290020B4290020B8290020AE2900203D
:10DA0000B029002038B5041C0720002913D08D0749
:10DA100011D1094801600949201C0A80084A0949B6
:10DA20001360FFF78DFF002805D1074B0122162058
:10DA30001A70FFF781FF38BDB0290020AE29002001
:10DA4000BC2900204DD90100AC29002008B5FFF702
:10DA500079FF021C531E9A41014BD2B21A7008BDC5
:10DA6000AC290020002803D0024B1860002000E001
:10DA70000E207047B8290020002803D0024B186000
:10DA8000002000E00E207047B429002008B5074BA5
:10DA90001B68002B07D09847002806D000210A1CDD
:10DAA00003F0B8FC01E0FFF757FF08BDBC290020D8
:10DAB00008B50B68984708BD10B5054B041C0360FA
:10DAC00004F0CEFD201C04F02DFE201C10BDC0462D
:10DAD000B053020010B5041CFFF7EEFF201C04F049
:10DAE0004FF9201C10BD0000F0B54F4C85B0201C34
:10DAF00000F094FA4D4804F081FF271C381C00F018
:10DB0000ADFAC0B20190381C00F00AFBC6B2381C56
:10DB100000F068FBC5B2381C00F0C6FB0390381C4F
:10DB200000F0DAFB0290381C00F0EEFB039B404C47
:10DB3000012B26D1029B012B1BD1013D212D05D8A4
:10DB4000FA21201C890000F029F9D7E7019B013B4D
:10DB5000212B05D8FA21201C890000F093F9CDE78C
:10DB6000731E212BECD8FA21201C890000F06AF9E1
:10DB7000C4E7012810D1FA21201C890000F0C2F965
:10DB8000BCE7029B012B1DD1012810D1FA21201CDA
:10DB9000890000F097F9B1E7013D212DDAD9019B09
:10DBA000013B212BCCD9731E212BC9D9D2E7013DD2
:10DBB000212DD8D9019B013B212BC1D9731E212BCB
:10DBC000BED9D0E7012805D1FA21201C890000F038
:10DBD000C9F893E7013D212D06D8FA21201C8900C0
:10DBE00000F0C0F8C8201CE0019B013B212B04D8A9
:10DBF000201CC82100F0EEF806E0731E201C212B2B
:10DC00000AD8C82100F002F9381C00F0EBFA0138FC
:10DC1000C0B22128E1D971E7FA21890000F0A2F809
:10DC2000322004F0F7FE69E7E8290020CDCCCC3D96
:10DC3000E929002037B5164C201C00F06DF8154D71
:10DC400015492A1C201C05F039F8144C201C00F042
:10DC5000E3F913492A1C201C05F030F8114C201C54
:10DC600004F03CFD104B201C2360042200231830DC
:10DC700001A9019305F0AAF8019B2A1C201C002B86
:10DC800000D00A4B43620A4905F018F837BDC04678
:10DC9000E92900200028002061DD0100E82900209A
:10DCA0001BE00100C0290020B0530200B1DA0100DE
:10DCB000B9DA010038B50023C356041C0D1C01332A
:10DCC00004D106480649242204F038FD6368002D7B
:10DCD00001D0E26800E02269136038BDD449020037
:10DCE000EC49020038B51822041C0D1C002105F077
:10DCF00076F8201C291C04F0D6FD201C38BD38B550
:10DD0000051C0C1C04F03CFD281C211C04F0CCFB61
:10DD100004F064FD38BD000010B50021041C0C485F
:10DD2000FFF7C8FF04F02CFD0A48C82104F0F0FA00
:10DD300004F054FD08480021FFF7BCFF04F020FD6B
:10DD40000648C82104F0E4FA04F048FD201C10BD88
:10DD5000EC290020EA290020202A00201C2A00208B
:10DD60007047000010B509480C1C0021FFF7A2FF06
:10DD7000211C0748FFF7C3FF06480021FFF79AFF61
:10DD80000548211CFFF7BBFF002010BDEC29002037
:10DD9000EA290020202A00201C2A002010B509486A
:10DDA0000C1C0121FFF786FF211C0748FFF7A7FF86
:10DDB00006480121FFF77EFF0548211CFFF79FFF62
:10DDC000002010BDEC290020EA290020202A002094
:10DDD0001C2A002010B509480C1C0121FFF76AFF1E
:10DDE000211C0748FFF78BFF06480021FFF762FF61
:10DDF0000548211CFFF783FF002010BDEC290020FF
:10DE0000EA290020202A00201C2A002010B50948F9
:10DE10000C1C0021FFF74EFF211C0748FFF76FFF86
:10DE200006480121FFF746FF0548211CFFF767FF61
:10DE3000002010BDEC290020EA290020202A002023
:10DE40001C2A002010B50B480C1C0121FFF732FFE3
:10DE5000211C0948FFF753FF08480121FFF72AFF5B
:10DE6000201C032105F05EFC81B20548FFF747FF47
:10DE7000002010BDEC290020EA290020202A0020E3
:10DE80001C2A002010B50B480C1C0121FFF712FFC3
:10DE9000201C032105F046FC81B20748FFF72FFF45
:10DEA00006480121FFF706FF0548211CFFF727FF61
:10DEB000002010BDEC290020EA290020202A0020A3
:10DEC0001C2A002010B50B480C1C0021FFF7F2FEA5
:10DED000211C0948FFF713FF08480021FFF7EAFE5D
:10DEE000201C322105F01EFC81B20548FFF707FF18
:10DEF000002010BD202A00201C2A0020EC29002030
:10DF0000EA29002010B50B480C1C0021FFF7D2FEB7
:10DF1000211C0948FFF7F3FE08480021FFF7CAFE5D
:10DF2000201C322105F0FEFB81B20548FFF7E7FE19
:10DF3000002010BDEC290020EA290020202A002022
:10DF40001C2A002008B519210D48FFF7CBFE04F06C
:10DF500017FC0C48172104F0E3F904F03FFC1C21E6
:10DF60000948FFF7BFFE04F00BFC0848182104F035
:10DF7000D7F904F033FC06481421FFF7B3FE08BDBF
:10DF8000202A00201C2A0020EC290020EA29002059
:10DF9000042A0020014B03607047C046404A02003B
:10DFA00010B5034B041C036003F0EAFE201C10BDF7
:10DFB000404A02000023C35610B5041C013304D1AB
:10DFC000054806492C2204F0B9FB636960681B68A8
:10DFD0001840431E984110BDD4490200EC4902008C
:10DFE00038B51822041C0D1C002104F0F8FE201C7A
:10DFF000291C04F03EFC201C38BD38B50368041C05
:10E000009B689847201D03F091FF2368051CDB687F
:10E01000201C9847281C38BD7047704708B504F08D
:10E02000AFFB0B48032103F0BBFF04F0D7FB04F068
:10E03000A7FB0848032103F0B3FF04F0CFFB04F073
:10E040009FFB0548032103F0ABFF04F0C7FB08BDAD
:10E05000682A0020382A0020802A002070B5052573
:10E0600000262A48FFF7C9FF294B181A294B80B20E
:10E07000984236D896239B00984234D8264B984233
:10E0800026D8FA235B0098421BD8E1235B00984214
:10E0900013D8C8235B000E2198421ED8AF235B0023
:10E0A000984206D896235B001221984215D8C828BA
:10E0B00001D9040918E0962801D90C210DE0642843
:10E0C00001D90A2109E009213C2806D81E2801D9D6
:10E0D000C40809E0002807D0072105F023FB84B21B
:10E0E00002E0012400E000240C48361904F086FC0C
:10E0F000B6B2002C08D0301C052105F013FB013D01
:10E10000ADB284B2002DACD1201C70BD982A002085
:10E11000EE02000060EA0000260200006F12833A5F
:10E1200070B5052500262A48FFF767FF294B181A06
:10E13000294B80B2984236D896239B00984234D817
:10E14000264B984226D8FA235B0098421BD8E1233D
:10E150005B00984213D8C8235B000E2198421ED85A
:10E16000AF235B00984206D896235B0012219842A9
:10E1700015D8C82801D9040918E0962801D90C211E
:10E180000DE0642801D90A2109E009213C2806D8BC
:10E190001E2801D9C40809E0002807D0072105F08E
:10E1A000C1FA84B202E0012400E000240C483619D0
:10E1B00004F024FCB6B2002C08D0301C052105F078
:10E1C000B1FA013DADB284B2002DACD1201C70BDBE
:10E1D0005C2A0020EE02000060EA00002602000037
:10E1E0006F12833A70B5052500262A48FFF705FF10
:10E1F000294B181A294B80B2984236D896239B0097
:10E20000984234D8264B984226D8FA235B0098428D
:10E210001BD8E1235B00984213D8C8235B000E2172
:10E2200098421ED8AF235B00984206D896235B0025
:10E230001221984215D8C82801D9040918E0962857
:10E2400001D90C210DE0642801D90A2109E0092136
:10E250003C2806D81E2801D9C40809E0002807D0A8
:10E26000072105F05FFA84B202E0012400E00024F7
:10E270000C48361904F0C2FBB6B2002C08D0301C92
:10E28000052105F04FFA013DADB284B2002DACD1AD
:10E29000201C70BD502A0020EE02000060EA000041
:10E2A000260200006F12833A38B50525002408487D
:10E2B00004F0A4FB0748FFF77DFE013D2418ADB232
:10E2C000A4B2002DF3D10220A042A441604238BD87
:10E2D0006F12833A382A002038B5052500240848F3
:10E2E00004F08CFB0748FFF765FE013D2418ADB232
:10E2F000A4B2002DF3D10220A042A441604238BD57
:10E300006F12833A682A002038B505250024084892
:10E3100004F074FB0748FFF74DFE013D2418ADB231
:10E32000A4B2002DF3D10220A042A441604238BD26
:10E330006F12833A802A0020031C04CB10B5041C02
:10E34000002A00D1036022689A4204D0034804499D
:10E35000542204F0F3F9206810BDC046504A020070
:10E36000644A020008B50248FFF7E6FF08BDC04650
:10E37000F02C002008B50248FFF7DEFF08BDC046BC
:10E38000F02C0020F8B5094B094E041C08C4051CEC
:10E390000F1C301CFFF7D0FF391C201C03F094FD2C
:10E3A000301CFFF7C9FF281CF8BDC046404A0200D8
:10E3B000F02C002070B5164E0121301CFFF7E2FF53
:10E3C000144D154C291C221C301C04F077FC022132
:10E3D0001248FFF705FE03211148FFF701FE042153
:10E3E0001048FFF7FDFD104E0621301CFFF7CAFF55
:10E3F000291C221C301C04F061FC0C4E0521301C31
:10E40000FFF7C0FF301C291C221C04F057FC70BD14
:10E41000502A002095DF010000280020382A002023
:10E42000682A0020802A0020982A00205C2A0020E8
:10E4300038B50023041C0160436099420AD1064D9F
:10E440002B68002B02D102F07FFC28602268930029
:10E45000ED586560201C38BDB02A0020F8B50028B2
:10E460000DD1104C2668002E07D1082003F07CFC4B
:10E47000311C051CFFF7DCFF2560206810E00A4D09
:10E4800001272E68094C3E4009D1281C04F004FCE9
:10E49000002804D0281C2760666004F00CFC201CB7
:10E4A000F8BDC046A42A0020B42A0020A82A0020D3
:10E4B000F7B5FA260093B60008AB041C1B78301C95
:10E4C00048431449171C019305F02CF985B2301C00
:10E4D000258078430F4905F025F9009B80B2A38081
:10E4E000019B6080A371032D01D80423238022881F
:10E4F0008023DB019A4200D92380032801D804221B
:10E50000628062889A4202D98023DB016380201CEA
:10E51000FEBDC0467102000093DF704708B5036876
:10E52000002B01D0081C984708BD08B50368002BD4
:10E5300001D0081C984708BD10B50023021C0370C9
:10E540001132431C00241C7001339342FAD14182E2
:10E5500010BD10B50B78041C03704B8A1022438247
:10E560000131013004F032FC201C10BD38B50268C6
:10E570000B68051C0C1C9A4221D10379002B07D192
:10E580000B79002B1BD1C28ACB8A9A4217D10BE0A0
:10E59000012B14D10B79012B11D10530053110223B
:10E5A00004F005FC00280AD12A7E217E7F231A4030
:10E5B0000B409A4203D16A8B638B9A4201D00020B0
:10E5C0000AE0EA69E36900209A4205D1238C288C8D
:10E5D000C01A43425841C0B238BD70B5051C0E1C6C
:10E5E00000242819311CFFF7C1FF002803D14C3447
:10E5F000E42CF6D100E0012070BD000007B501ABAE
:10E600001980191C5A80FFF787FF10280CD003D8F7
:10E61000002398420BD009E00523112807D0054AB2
:10E620000423904203D001E0032300E00B23181CD5
:10E630000EBDC0460230000070B50025041C291C28
:10E6400020C0FFF779FF0C26201C291C321C2576E0
:10E650006583A583E5832584243004F0C0FB074B44
:10E66000201C65632363291C321C383004F0B7FB7F
:10E67000034BA564201C636470BDC0461DE501000A
:10E680002BE5010010B5041CFFF7D6FF201C4C3011
:10E69000FFF7D2FF201C9830FFF7CEFF201C10BDE3
:10E6A000F8B50D1C1E1C08C9041C08C0171CFFF778
:10E6B00050FF2B7E3A1C23766B8B6383AB8BA3833B
:10E6C000EB8BE3832B8C2384231C243323CA23C3A7
:10E6D000FF68002227636263311C0833A1C9A1C30C
:10E6E000F668201C6664A264F8BD70B50E1C8AB082
:10E6F0000168041C038C0190684603AD039112303D
:10E70000111CAB80FFF725FF201C6E83029524307F
:10E71000236B01A998470AB070BD07B5031C6A4670
:10E720000090117138305B6C6946984707BDF0B5B1
:10E73000A7B00B790C1C086869460B71E38A00903E
:10E740006846161CCB821022611D053004F03EFB8A
:10E75000237E6D462B76638B221C6B83A38B243226
:10E76000AB83E38BEB83238C2B8409ABA1CAA1C3BE
:10E77000216B00250C910D950EAB083283CA83C323
:10E78000626C13A811921295FFF756FF13A9201C73
:10E79000222204F01BFB231C1CAA243383CA83C33C
:10E7A0001F9A65632263083321AA83CA83C3249A0C
:10E7B000A56462646846311CFFF7AFFF27B0F0BD67
:10E7C00010B594B0041C01A8FFF736FF201C01A966
:10E7D000FFF7CCFE0023984219D00D9A236B9A4282
:10E7E00014D1211C0AA824310C2204F0E0FA0028DC
:10E7F0000CD1129B626C934208D1211C38310FA8B6
:10E800000C2204F0D4FA0123002800D00023181CA5
:10E8100014B010BDF8B5061C0F1C00257419201C7F
:10E82000391CFFF7A3FE002804D0201CFFF7C8FF07
:10E83000002803D04C35E42DF0D10024201CF8BD75
:10E8400010B5041CFFF7E6FF011E03D0201C0022B8
:10E85000FFF76DFF10BDF8B50F1C041C0325238CBA
:10E86000261CBB4204D1201CFFF7AAFF002804D0BD
:10E87000013D4C34002DF2D12E1C301CF8BD38B5B2
:10E88000041C151CFFF7E7FF011E03D0201C2A1CE7
:10E89000FFF74DFF38BD08B5FFF7DDFF431E984178
:10E8A000C0B208BDF0B589B0061C0091171CFFF777
:10E8B000D2FF041E2AD000253A88062395420FD2A3
:10E8C0006B43FB185A88998803A801920135FFF71A
:10E8D00033FE201C019903AAFFF707FFADB2EBE757
:10E8E000013A5343FF187988E28B013189B2914292
:10E8F00003D9301C211C002206E00098FFF77EFEA1
:10E90000021E03D0301C211CFFF711FF09B0F0BD1F
:10E9100070B5061C00243519281CFFF751FF00288C
:10E9200003D14C34E42CF6D1051C281C70BDF0B585
:10E930001E1C4B8B041C0233C88B99B09BB20D1C60
:10E9400003920F8C01930290984207D20027059101
:10E950000697F368301C05A998472DE0201C391C48
:10E96000FFF799FF002801D0052725E0201CFFF7BD
:10E97000CFFF041EF8D0381C0199029AFFF73EFE23
:10E98000071E19D1291C331C039A05A8FFF788FE1E
:10E9900005A92222201C04F019FA231C24330EAAF4
:10E9A00023CA23C3119908332163676313AA23CAB7
:10E9B00023C3169AA7646264381C19B0F0BD30B541
:10E9C00003AC258804AC2488028484830122047E5D
:10E9D0004583151C1D4001609443590811402C4388
:10E9E00002259140AC439D0815400C430421AD0025
:10E9F0008C43D90811402C430825C900AC431D099C
:10EA000015400C4310212D018C432C43590920251E
:10EA10009B09AC4311401A4093014901221C0A434F
:10EA200040218A431A43027630BDF0B589B0041CF8
:10EA30000EA805780FA8078810A8008803AE2284C6
:10EA400001902160301C191CFFF776FD231D07CEB5
:10EA500007C303CE03C3019A217E0123281C18405B
:10EA6000A28399436A081A40014302209A408143D5
:10EA7000A80818401143042280009143EA081A4074
:10EA800001430820D2008143280918401143102275
:10EA90000001914301436A092020AD091A408143D6
:10EAA0002B409D0152010B1C1343402293432B43E7
:10EAB0006783237609B0F0BD70DF704771DF704760
:10EAC00072DF704773DF704774DF704775DF704720
:10EAD00076DF704777DF704778DF704779DF704700
:10EAE0007ADF70477BDF70477CDF70477DDF7047E0
:10EAF00086DF704787DF704788DF704714207047D4
:10EB000064207047A0208001704708B5FFF7F2FF2E
:10EB1000421E9041404205230340181C08BD10B519
:10EB2000041CFFF7D1FF021C0320002A06D1201C81
:10EB30005830037801218B430370101C10BD08B5B9
:10EB40003B239A4200D01323081C191CFFF7C0FF77
:10EB5000002800D0032008BD08B50A1C0368011C6A
:10EB6000FE31C98B1B6A984708BD08B5081CFFF722
:10EB7000B9FF002800D0032008BD08B5081CFFF726
:10EB8000AFFF002800D0032008BD08B5081C111CE9
:10EB9000FFF79CFF421E9041404203230340181C94
:10EBA00008BD08B5081C111CFFF7A0FF421E9041CC
:10EBB000404203230340181C08BD08B5081CFFF79A
:10EBC0008BFF421E9041404203230340181C08BDA6
:10EBD00008B5081CFFF782FF421E90414042032304
:10EBE0000340181C08BD08B5081CFFF773FF00237D
:10EBF000984203D00523112800D00323181C08BD18
:10EC0000024B0B60092313607047C0467D4A020027
:10EC100008207047B830017000207047B93001708B
:10EC20000020704702207047B83000787047B93034
:10EC3000007870470020704708B50368002B01D0AA
:10EC4000081C984708BD08B50368002B01D0081CB4
:10EC5000984708BD08B5031C1A1CF3326C301178B4
:10EC60009B6F984708BD10B518C96210E10701D520
:10EC70008158CB588018984710BD0000012008B576
:10EC8000054A011CFDF7A0FA421E904140420B23A9
:10EC90000340181C08BDC046F5ED010013B50C1E5D
:10ECA000012C07D86846111C0130062204F08EF8AA
:10ECB000002005E08B1E012B01D9032007E0012075
:10ECC0006B4669461C70FFF7F7FE0028F5D116BDAC
:10ECD00037B568460D1C141CFFF7F0FE032300280F
:10ECE0000FD1002D02D06A4613782B70002C07D06C
:10ECF0006946201C0131062204F068F8002300E078
:10ED0000231C181C3EBD70B5061C0D1C0024331CB2
:10ED1000BA331B78A3420ED96B79A3420BD90722D1
:10ED2000111C61432B68013458187118BB3104F071
:10ED30004DF8E4B2EBE72C71002070BD37B511231C
:10ED400001AD081C2B700C1C04F0A4F9211C82B22C
:10ED5000281CFFF7C9FE421E904140420323034096
:10ED6000181C3EBDF8B50368061CDB6C0C1C0D7945
:10ED700098470323854226D822790023D9B29142AD
:10ED800008D20721594320680133095C0329F5D1D2
:10ED9000042318E0371CBA3700253D702379AB42B5
:10EDA00010D9387807225043111C69432368301862
:10EDB0005918BB3004F00AF83B78013501333B7039
:10EDC000EDB2EBE70023181CF8BD10B50C1CC97F91
:10EDD00001201F290DD800290AD0D37F201CFFF75E
:10EDE0006FFE002804D1208CFFF776FE002800D0AB
:10EDF000032010BD70B5051C86B0002001F0A8FFEF
:10EE0000036800261B699847031CF3331D700F4BE2
:10EE1000041C0490694602A808220093019603F09E
:10EE2000D5FF0B4B02A9059386235B00E518049BD5
:10EE30000822AB60281C03F0C9FF059B201CEB6077
:10EE4000F430311C03F028FC06B070BD55EC010015
:10EE500067EC0100F0B5051CAC35041C686887B090
:10EE6000A860A86800280BD0C368211C9847AB682D
:10EE7000002B02D16968A960F3E71B69AB60F0E77A
:10EE8000261CB0363568002D05D02F69281C02F0ED
:10EE900077FF3D1CF7E7231C58331978FC223560B7
:10EEA0000A40261C1A700A36023B1D709D71301CE8
:10EEB000291C1F2203F093FFF5772A36301C291CEA
:10EEC0001F2203F08CFFF577606E002804D00569DF
:10EED00002F056FF281CF8E7251C60669835286864
:10EEE000002804D0066902F04BFF301CF8E7261C0E
:10EEF0002860A4363568002D05D02F69281C02F043
:10EF00003FFF3D1CF7E7356001AE291C301C0C2289
:10EF100003F065FF231C321C6C3383CA83C3094B87
:10EF2000E567A3670C22301C291C03F058FF231C43
:10EF3000803385CE85C3044A9034281C1A6025602E
:10EF400007B0F0BD47EC010039EC010010B5041C1E
:10EF5000FFF780FF00280AD1231C0122FE33524212
:10EF6000DA83BA34463B18705870207000E00620EF
:10EF700010BDFE30C1837047FE30C08B704700006B
:10EF8000F0B593B0039000200C1C01F0E1FE036883
:10EF90005B6A984702F09CFB06AB00280DD000226C
:10EFA0001A7105AA069208221A73181C0AAA9A60F6
:10EFB00002F05AFC002802D04FE0187118730023A9
:10EFC000237323711F1C039BBA331B78BB4243D9A5
:10EFD00007237B4303990025CA18B832D278022A46
:10EFE0002DD106AE337BAB4233D907207843039B48
:10EFF000AA001818B368BB309958029202F04CFC72
:10F00000002819D0B168029BCA58237BA1689B00D5
:10F010005A50237B327B01332373531E9D4206D00B
:10F020000F49B36852189200D25802995A5006AB51
:10F030001A7B013A1A730CE00135EDB2D1E703995E
:10F040002279CB182168BB339200535023790133C6
:10F0500023717B1CDFB2B6E7002013B0F0BDC046C1
:10F06000FFFFFF3F70B50B78021C9AB00D1C022009
:10F07000012B3BD04988032B04D1A039181C89B23D
:10F080001B4B03E020391B4B89B2032099422DD83A
:10F09000A988194B0320994228D80AAB009312ABD8
:10F0A000029369460023161C0B710B73B836337834
:10F0B000002B05D0101C6946FFF762FF002815D110
:10F0C00004AC0021201C182203F089FE2B7800A933
:10F0D00023703378201C23726B88E1602382AB8815
:10F0E0006382FFF7EFFC002800D003201AB070BD48
:10F0F000603F0000E03F0000FF3F000070B598B0A7
:10F1000008AB009310AB02936A460023051C1371F1
:10F110001373B9352B780C1C002B1FD104A82A7847
:10F120000678A179012319409E4313405A00331CED
:10F130000B4302218B431343037000AB43602388CE
:10F14000038163884381A3888381FFF7D1FC031C7B
:10F150005A1E934103205B42184004E06946FFF7C2
:10F160000FFF0028DAD018B070BD0000F0B59DB0D8
:10F17000051C1F1C68466B461A7001300622229E31
:10F1800002AC03F023FE002F07D03B8823807B884E
:10F190006380BB88A380FB8806E03223238064233E
:10F1A00063809623A7809B00E3800CAB04A90493A3
:10F1B00014AB8B602F1C00230B710B73B9373B789A
:10F1C000002B17D1387808A901230A7802271840A4
:10F1D000BA43984004AF4F600243002E10D0B0797C
:10F1E0009A431840338802430B8173880A704B811D
:10F1F000B38811E0281CFFF7C3FE0028E2D02AE004
:10F20000281C323000789A431840AB8D02430B81A2
:10F21000EB8D0A704B812B8E6846221C8B81FFF789
:10F220006BFC031C0020834215D0082B12D005D89C
:10F230000720042B0FD083420AD107E00520112BB1
:10F2400009D0064A934201D0102B01D1042002E0DC
:10F250000B2000E006201DB0F0BDC04602320000C9
:10F2600070470220704700207047704790DF70475A
:10F2700095DF704797DF704793300078431E9841C1
:10F28000C0B2704708B5081C111C1A1CFFF7F0FF2C
:10F29000031C0020834204D0113B58424341062006
:10F2A000C01A08BD30B585B001AC6380089B00254D
:10F2B000E380099B2170101C211C6570A5800393BD
:10F2C000FFF7D8FFA84208D0112805D0044BC51875
:10F2D00068424541063500E00525281C05B030BDD3
:10F2E000FCCFFFFF08B50368002B01D0081C98472E
:10F2F00008BD08B50368002B01D0081C984708BD5D
:10F3000008B50368002B01D0081C984708BD08B554
:10F31000ED30FF30FFF70BFB08BD08B5ED30FF30D7
:10F32000FFF75BF908BD08B5ED30FF30FFF788FA4D
:10F3300008BDF0B587B001AB1A1C0C1CE0CCE0C2D4
:10F34000DA2464000219C968E0CBE0C20019002386
:10F35000C160036107B0F0BDF0B5051C91B006AE09
:10F360003435019500910396041C311C101CE0C833
:10F37000E0C10BAD0295D768191C2A1C61C961C296
:10F38000DB6801980593636B5B689847051C062052
:10F39000002D3AD1039A231C503343CA43C3029A27
:10F3A000E76525661C33C1CAC1C3059E201C1E60CB
:10F3B00004331D60169914223A3003F007FD201C17
:10F3C00017991422643003F001FD009F231C913330
:10F3D0002787013B5D700121381C1D70D9702A1CE4
:10F3E000FFF744FF071C281C002F0ED0636B019809
:10F3F0009B689847112F07D0054B9F4202D00620EB
:10F40000072F02D1042000E0052011B0F0BDC04656
:10F4100002300000F0B597B00593036807AC1B6895
:10F4200004910393111C231C061CA1C9A1C3D2681B
:10F4300000250A92291C0C220CA811AF0B9503F091
:10F44000CEFC094B291C381C10950F93FFF774F85C
:10F45000059D01970095301C0499221C0CAB039F5D
:10F46000B84717B0F0BDC046F3F20100F0B589B05F
:10F47000002603AC051C8680311C201CFFF75CF8BD
:10F48000211CA81D142203F0A1FC2F1C311C0C22EE
:10F49000201C03F0A4FC1C37201C0EC80EC70F4B09
:10F4A000311C0190AB62EE62201CFFF745F82B1C6B
:10F4B000221C303383CA83C3019A311C81CA81C3A1
:10F4C0000C22201C03F08BFC2B1C443386CC86C3FF
:10F4D000034B301C2B656E6509B0F0BDE5F20100F1
:10F4E000F3F2010070B5041CC06A86B02063206B83
:10F4F00000280BD0C368211C9847236B002B02D136
:10F50000E16A2163F3E71B692363F0E7E06A0028FF
:10F5100004D0056902F034FC281CF8E7E062A0681A
:10F52000002804D0056902F02BFC281CF8E7A06035
:10F530006069002804D0056902F022FC281CF8E765
:10F54000256A6061002D05D02E69281C02F018FC88
:10F55000351CF7E7201C25623430FFF787FF0028B1
:10F5600029D1231C90331D705D709D70DD70C22306
:10F570005B00E550E21801235B4253609360D36067
:10F580001361CE225200A550CE225200A21801AE25
:10F5900053609360D3601361301C291C0C2203F06C
:10F5A0001EFCDA225200A31807CE07C3B534034B62
:10F5B000FF34E3602561002006B070BD01F3010057
:10F5C00070B58AB001AD041C24220021281C03F070
:10F5D00006FC002102A8FEF7AFFFCA235B0000264D
:10F5E000E018291C22222E766E83AE83EE832E84B1
:10F5F00003F0ECFB2368201C5B689847231C5F33F7
:10F600001E70B0420DD0C0235B00E358B34208D057
:10F61000054BB34205D0C0235B00E018A188C36846
:10F6200098470AB070BDC04661F2010008B5343099
:10F63000FFF7C6FF08BDA0DF7047A4DF7047A5DF56
:10F640007047A6DF7047A8DF7047A9DF704700202A
:10F650007047000073B5151C02680E1C0093946877
:10F660002B1C321C0149A04776BDC046FFFF00009D
:10F6700037B5069C0020009020886D462880081C25
:10F68000111C6A460193FFF7DAFF0323002802D119
:10F690002B882380031C181C3EBD000073B5151C6D
:10F6A00006AA0E1C117802680093019114692B1CA4
:10F6B000321C0149A04776BDFFFF0000F8B5041CCD
:10F6C00000200E1C151C01F043FB03681B699847C2
:10F6D00023689F69FFF750FC321C011C2B1C201C67
:10F6E000B847F8BDF0B5D48B42791E1C85B0002315
:10F6F000934218D2DD004519C4352D88A54210D19A
:10F700001833DB00C3186C461A890E340223238099
:10F71000036803AD00949F682B1CB847021E04D0F9
:10F720000DE00133E4E7042009E023880620022BE2
:10F7300005D12B88101C9A0701D00123337005B026
:10F74000F0BD000070B50D1C86B000210091161CA4
:10F750000AA90BAA098812786C4621800193002A15
:10F7600001D141790EE0281C311C6A46FFF765FF84
:10F7700000283ED16CE0D4000419C4342488B4427B
:10F7800003D001328A42F6D335E01C329200801851
:10F79000426830210132D27F0A422CD002AC1021C3
:10F7A0000A40E3600AAB51424A41A360294B01324F
:10F7B00000202680A270A0809D4207D101F0C8FAE7
:10F7C00003681B699847FFF7D7FB051C281C211C01
:10F7D000FFF737FF83B2181E3AD0112B37D02EDC3B
:10F7E000082B32D0281C311C6A46FFF726FF002860
:10F7F0002DD003202CE0281C311C6A46FFF71DFF8A
:10F80000031E0C2BF5D00C280AD80528F1D00728A8
:10F8100001D104201CE00020834219D00B2017E006
:10F820001028F6D003D808200F2B11D0F6E70A4A8B
:10F830009042DED0D02292019042DAD0EEE7074B20
:10F84000984204D0064B9842CCD1062000E0052017
:10F8500006B070BDFFFF0000023000000330000062
:10F860000134000008B50378002B08D10B78002B79
:10F8700011D1428A4B8A9A420DD101200CE0012B12
:10F8800009D10B78012B06D101300131102203F090
:10F890008EFA0028F1D0002008BD0000F0B5061C4B
:10F8A00099B0081C0F9102F027F86C46463412906C
:10F8B00012A90120221CFFF7BEFE002801D0032060
:10F8C000BEE023880F990E908B830F990E9A0B7DC3
:10F8D00093426AD97379132B01D90720B0E00F9AAC
:10F8E0000E9992698B009C586269002A62D1638BE1
:10F8F000002B5FD1631CDB7F022B5BD150E0616A80
:10F90000AB005F5813A84F49FEF716FE381C13A929
:10F91000FFF7A8FF002803D07A697F8B0C920D9720
:10F920000135EDB2231C28331B78AB42E7D861695F
:10F93000631CDA7FA31CDB7F0091618B00200191A7
:10F94000218B0291217F03910C9904910D990591CE
:10F95000211C293109780691211C2A310978079147
:10F9600071791831C90071180431089112A902F097
:10F970001DF80028A3D173791A1C1C329200183389
:10F98000B218DB005460F3189B880C90E383737902
:10F9900001337371231C28331B780C9A934211D8BE
:10F9A0000E9B0133DBB20E938FE7337900200133D6
:10F9B000337145E0201C01F09FFF002512900D954A
:10F9C0000C95AFE7C2277F00F35D072B85D80C9A13
:10F9D000616A93005D5813A81A49FEF7ADFD281C13
:10F9E00013A9FFF73FFF0D90002824D1281C01F038
:10F9F00083FF298B6A696B8B0091297F129001919B
:10FA0000F15D0D98C031490071180631029112A9BB
:10FA100002F086F8002800D051E7F35D1A1C583236
:10FA20009200C033B2185B005560F318DB88EB839B
:10FA3000F35D0133F3550C9B0133DBB20C93A9E763
:10FA400019B0F0BD0129000038B50C220D1C0021B1
:10FA5000041C03F0C4F900232361024B2560201C21
:10FA6000E36038BD01F30100F0B5041C006B87B002
:10FA70006063606B00280BD0C368211C9847636BE0
:10FA8000002B02D1216B6163F3E71B696363F0E72D
:10FA9000206B002804D0056902F072F9281CF8E7F1
:10FAA000206320716071E068002804D0056902F0CD
:10FAB00067F9281CF8E7E060A069002804D0056910
:10FAC00002F05EF9281CF8E7666AA061002E05D0F6
:10FAD0003569301C02F054F92E1CF7E701AD311CDA
:10FAE0006662281CFFF7B0FF231C2A1C383383CA28
:10FAF00083C3EB68311C6364A664281CFFF7A4FF72
:10FB0000231C2A1C4C3383CA83C3EB68311CA365B6
:10FB1000E665281CFFF798FF231C2A1C603383CA64
:10FB200083C3ED68301CE566266707B0F0BD38B5C5
:10FB3000051CFFF799FF041E1DD1281C211C502213
:10FB4000743003F04CF9B2235B00E818211C20222A
:10FB500003F045F9281C211C0822C43003F03FF9AA
:10FB6000C3235B00E818211C102203F038F9C223DC
:10FB70005B00EC5400E00624201C38BD0B68002B11
:10FB800001D1036002E0024B036000234360704731
:10FB900061F2010038B5041C0D1C6368A360A06805
:10FBA000002807D0C368291C9847A368002BF4D00D
:10FBB0001B69F3E738BD08B5C368984708BD30B581
:10FBC000141C87B004290ED0052917D0032925D18C
:10FBD000051C383504A8291CFFF7D0FF049A002A19
:10FBE00018D1059B14E0051C4C356846291CFFF70D
:10FBF000C5FF009B002B0DD1019B09E0051C603562
:10FC000002A8291CFFF7BAFF029B002B02D1039B1D
:10FC1000DA0703D5281C211CFFF7CDFF07B030BD44
:10FC2000F0B50B888FB0051C0C1C512B41D008D8A7
:10FC3000012B24D0502B00D002E1CE884279002342
:10FC40000EE0522B2ED0532B00D0F9E0CE880521A8
:10FC50003AE0D9006918C8310988B14203D00133AC
:10FC60009342F6D309E01C339B00EB185A6830210D
:10FC7000531CDB7F0B4200D0CCE0022124E0C068A3
:10FC80000C7A28612869002800D1D9E0C368211CBA
:10FC900098472B69002B02D1E9682961F2E71B69BB
:10FCA0002B61EFE7888800210A1C0B1CFFF7CDFCB5
:10FCB000C6E08B79012B05D0022B00D0C0E00E8965
:10FCC000072101E00E8906216B790022009200983D
:10FCD000984200D3B4E00098C200AA18C432128837
:10FCE000B24212D1062957D0072911D0022900D0DB
:10FCF0008BE0A3880AA90B804E80237A0B71A38B1B
:10FD0000CB80E38B20340B8140E0009A0132DDE7A9
:10FD10000021102202A803F062F8A38869460B8133
:10FD20004E81E38B221C8B81238C223206AFCB8148
:10FD30000192049200211022381C03F050F8022393
:10FD40003B70009B1C339B00EB185B681A1C2A322B
:10FD500011780022914206D0181C4030DB6C02A9B9
:10FD600098476B469A8AA088391CBA80FFF76BFCCB
:10FD7000BB88002B64D1A3880AA90B804E80A37A8C
:10FD80000B71E38BCB80238C019C0B81281CCC60F6
:10FD90001430FFF7FFFE53E006AF00211022381C9D
:10FDA00003F01DF8A3887E803B80A38B0AAE002160
:10FDB0001022301CBB8003F012F801233370009B2B
:10FDC0001C339B00ED186B681A1C29321178002235
:10FDD000914205D0181C2C309B6B391C9847BA896E
:10FDE000B280BB89002B0BD1BB68002B08D0B27945
:10FDF00001210A43B271BA883281FA88F3607281B4
:10FE0000A088311CFFF71FFC1AE0281C321CFFF7EA
:10FE1000D6FE15E0A11CC87F0134E17F0002084333
:10FE2000990602D50321840707D40421DC0604D5F2
:10FE300001210840414241410331D28B281CE6E7B1
:10FE40000FB0F0BD90DF704792DF704794DF7047CE
:10FE500038B502680B68051C0C1C9A4201D00023BF
:10FE60001AE004300431FFF7FDFC0028F7D02A7EA9
:10FE7000217E7F231A400B409A42F0D16A8B638B1C
:10FE80009A42ECD1EA69E3699A42E8D12A8C238C40
:10FE9000D31A5A425341DBB20120584038BD38B51D
:10FEA0000025041C291C20C0FEF746FB257665832F
:10FEB000A583E5832584201C38BD036810B5021C8A
:10FEC000002B0BD0591E40681160990000230433A9
:10FED0008B4205D0D4186468D450F8E70120404222
:10FEE00010BD036810B5021C002B0BD0591E4068D2
:10FEF00011609900002304338B4205D0D418646844
:10FF0000D450F8E70120404210BD000073B5051C35
:10FF10002B686C69002B1CD0231C5F3303221A70E2
:10FF20006E680F490422684602F050FF182373439D
:10FF30006033E318998ADB8A01AA11805380A08874
:10FF40006946FFF783FF002809D0281CFFF7B5FF9B
:10FF5000DEE75F342378032B01D10123237073BDC7
:10FF6000884B0200F0B5031C5C3300221A700A783B
:10FF700089B0041C0133042A00D904221A70A82372
:10FF800000205B00E050A82301225B005242E318EE
:10FF9000271C5A609A60DA601A610D1C7437061CBF
:10FFA000231C5D331B789E4226D22B79002B0DD16A
:10FFB000A8225200A358591C9B00E3185133FF3369
:10FFC000A1505E60EA882B893A8010E0698803A816
:10FFD000FEF7B2FAEB88381C00932B89143803A97A
:10FFE0001422019302F0F2FE009B3B80019B7B8078
:10FFF000013608351837D3E7231CFC335B6D002B23
:020000022000DC
:1000000004D0A8256D006019FFF780FF09B0F0BD8E
:1000100073B5051C2B686C69002B1CD01149231C7F
:1000200004225F331A7089186E68684602F0CEFEAB
:1000300024235E43C036A619738B01AA13800133B3
:100040005380A0886946FFF701FF002809D0281CCB
:10005000FFF747FFDEE75F342378042B01D102234B
:10006000237073BD884B0200F0B50A78031C89B079
:10007000041C0F1C5E33042A00D904221A70B42316
:100080005B000026E650B42301225B005242E318D5
:10009000201C5A609A60DA601A613D1CC030231C33
:1000A00007905E331B789E4230D22B79A16D002BD6
:1000B00016D1B4225200A358581C9B00E318693390
:1000C000FF33A0505E600A2373432889FB189B7995
:1000D00000906889A28801900798FEF770FC10E0F4
:1000E0000A2070436B88A2880593C3199B796846E0
:1000F00003702889059B0190688902900798FEF794
:1001000094FC079801360A352430C8E7231CFC33D9
:10011000DB6E002B04D0B42149006018FFF778FF94
:1001200009B0F0BD7FB5031C5F331B78051C032BA2
:1001300026D1A82252008618264B0A689A421BD163
:1001400089681022684602F041FE301CFFF7B5FEB8
:100150001824444360342D1901232B70E818694694
:10016000102202F033FEAB7B6A7B1B0213436B82CF
:10017000301CFFF7CBFE2CE0301CFFF79EFE28E082
:10018000042B26D1B4235B00C6180A68124B9A428E
:100190001CD1896810220331684602F017FE301C1A
:1001A000FFF79FFE24244443C0342C1901232371FC
:1001B000601D6946102202F009FEA37C627C1B02CE
:1001C0001343E382301CFFF723FF02E0301CFFF7EC
:1001D00088FE7FBD01001000010013000B68002B9A
:1001E00001D1036002E0024B0360002343607047CB
:1001F00061F2010008B5C368984708BDF0B5021C5C
:100200005F3291B001921378051C041C0E1C5C3502
:10021000022B5BD1CA235B00C3180021242207A84C
:10022000009302F0DCFD07A8FFF739FE009807A94C
:10023000FFF70EFE002846D0002E35D12B7818226D
:1002400053436033E318DA8AD9235B00271C311C3F
:10025000E252303702A8FEF76FF9381C02A9FFF707
:1002600001FB061E14D1CC225200381CA118FFF746
:10027000F9FA002818D0311C07A8FEF75DF9A01D77
:1002800007A9FFF7EFFA01235840C0B200280BD0AE
:10029000261C443602A8311CFFF7A0FF029B002B4E
:1002A00019D1039BDA0716D40021242207A802F0F3
:1002B00096FD07A8FFF7F3FDCA235B00E01807A926
:1002C000222202F083FD019A012313702B7801335F
:1002D0002B7011B0F0BD301C0099FFF78BFFE3E7E6
:1002E00073B581800226051C5E304670002401AE85
:1002F0000470081C311C32807380FFF7A5FD1028A4
:100300000ED005D8A04210D00624082809D005E058
:100310000524112805D0064A904201D00B2400E0A4
:100320000424281C211CFFF769FF201C76BDC04651
:1003300002300000F0B5041C89B0261C5F3633780B
:10034000012B6DD1251C201C5C355D302B7802788B
:1003500093424CD20021A71D03A8FEF7EDF8381CEC
:1003600003A9FFF77FFA002809D12B7818215943F8
:1003700060316118381CFFF775FA002833D0E36943
:10038000002B16D0274B002B13D0002103A8FEF71B
:10039000D3F8201C303003A9FFF764FA002808D0F6
:1003A0002B7818215943201C603161181C30A36A36
:1003B00098473678012E16D1211C01A84431FFF749
:1003C0000DFF019B002B02D1029B33420BD02B78F7
:1003D000182253436033E3189A8AA188DB8A201CD1
:1003E000FFF77EFFA9E72B7801332B70A5E7002AE2
:1003F00016D0002B14D01822013B53436033E3186E
:10040000D98A094B002202702A70994203D1201C1C
:10041000FFF7D6F804E0A088FFF714FD0028F6D116
:1004200009B0F0BD61F20100FFFF0000F0B5041C4F
:1004300097B05F3003900378022B00D0D6E0CA2239
:1004400052000021A7180DA8242202F0C8FC0DA814
:10045000FFF725FD381C0DA9FFF7FAFC00283AD05C
:10046000231C5E331B78002B35D0231CDA331A880B
:10047000D923013A5B00261CE2520021303608A83D
:10048000FEF75AF8301C08A9FFF7ECF9051E14D145
:10049000CC235B00301CE118FFF7E4F900281AD0E8
:1004A000291C0DA8FEF748F8A01D0DA9FFF7DAF9E1
:1004B00001235840C0B200280DD0251C443504A8A3
:1004C000291CFFF78BFE0498002800D084E0059BD0
:1004D000DA0700D580E00025231C5E3301931E78E7
:1004E000B5424DD203980378022B00D07EE0721EF5
:1004F0002423954208D1191C6943C0316118381C66
:10050000222202F063FC3BE06A1C1E1C53436E4334
:10051000C033E3185B8BC036013BA619221C303276
:10052000F383002108A80192FEF706F8019808A9B4
:10053000FFF798F90290002812D1311D0198FFF7BA
:1005400091F9002819D002990DA8FDF7F5FFA01D1B
:100550000DA9FFF787F901235840C0B200280CD03D
:10056000231C443306A8191C0193FFF737FE069895
:10057000002836D1079BDA0733D40135EDB2ABE75B
:1005800003980378022B31D1002E08D02423013E9A
:100590005E43C036A619B38B01339BB200E0144B07
:1005A000221C5C32127818214A436032A218D28A87
:1005B00001980021017093420AD20DA90B804A8054
:1005C000A088FFF741FC002810D0201C0B2100E080
:1005D000201CFFF713FE09E0281C391CFFF70AFE58
:1005E00079E70198311CFFF705FEC6E717B0F0BDAB
:1005F000FFFF000002207047022070470020704774
:100600000020704700487047FFFF0000022070473D
:100610000220704702207047022070470220704776
:100620000220704702207047022070470220704766
:100630000220704702207047022070470220704756
:10064000002313607047002070470220704702208B
:100650007047022070470220704702207047002038
:10066000704700207047002070470220704702202A
:1006700070474160704781607047C1607047016199
:100680007047416170470220704702207047022086
:1006900070470220704702207047022070470220F6
:1006A000704790DF704766DF704748DF70475F3004
:1006B0000078431E9841C0B27047007970470C30F3
:1006C00070470C30704708B5FFF7EFFF08BD00001A
:1006D00010B5034B041C0360FDF7EEF9201C10BDA0
:1006E000C853020010B5041CFFF7F2FF201C01F0F4
:1006F00047FB201C10BD08B5081C111C1A1C029BCE
:1007000000F0ECFF08BD08B5081C111C01F060F8F2
:1007100008BD08B5081C111C01F080F808BD08B51B
:1007200001F042F808BDF0B595B008230C1C6946ED
:100730000B7104AA0B7368460CAB0293009201F094
:1007400093F80023061C051E2CD169460B79AB4299
:1007500011D96379AB4201D8257124E00722101C1E
:1007600068432368009F1818AB00D959013502F07F
:100770002DFBEDB2E9E7257100256B461A7B237945
:10078000EB18AA420ED9627993420BDA0721029F35
:100790004B43AA00D05922680135D11801F080F8E6
:1007A000EDB2EAE72371301C15B0F0BD7FB50379D7
:1007B000002B0FD0164E174C3378201C002B25D160
:1007C00002AD281CFFF76FFF002819D16B88592B49
:1007D00016D101E0104819E02B78AA88D91F012909
:1007E00004D80092201C20210C4A03E000920C4AFD
:1007F000201C202102F01CFC01233370201C05E08A
:10080000201C0849202202F04CFCF7E704B070BD20
:10081000B82A0020F42B0020784D0200924D0200EF
:10082000AF4D0200D44D020038B50379041C0920F5
:10083000002B28D0FDF70AF9031C0520002B22D13C
:10084000251CFC35286B002803D1A86B002806D195
:100850000AE003681B6A98470028F6D013E0036893
:100860009B6A984700280ED1686B002804D0036863
:10087000DB6A9847002806D1201C0C30FEF766FB87
:10088000002800D1207138BDF7B5009303680191AD
:100890005B68041C171C9847051C0620002D3BD1E3
:1008A0001C203A1C00194ACA4AC0FF68009A231C3F
:1008B000A762E562443383CA83C3009B0899DB685F
:1008C000142223656565A01D02F080FA201C099999
:1008D0001422303002F07AFA019E231C5D33A68088
:1008E000013B5D700121301C1D70D9702A1CFFF77F
:1008F000D8FE061C281C002E0ED02368201C9B68E6
:100900009847112E07D0054B9E4202D00620072E95
:1009100002D1042000E00520FEBDC04602300000E8
:1009200038B5041CE3692362206A002807D0C36835
:10093000211C9847236A002BF4D01B69F3E7E06978
:10094000002804D0056901F01BFA281CF8E7E061D3
:100950006060A060E0602061606138BD08B5FFF7AD
:10096000DFFF002800D0062008BD38B5041C006851
:10097000002804D0056901F003FA281CF8E720607C
:1009800038BD000010B5034A041C04C0FFF7EDFF9A
:10099000201C10BD884C020010B5041CFFF7F2FFAC
:1009A000201C01F0EDF9201C10BD38B5041C0068B6
:1009B000002804D0056901F0E3F9281CF8E720605D
:1009C00038BD000010B5034A041C04C0FFF7EDFF5A
:1009D000201C10BD984C020010B5041CFFF7F2FF5C
:1009E000201C01F0CDF9201C10BD000038B5074BCC
:1009F000041C03604068002804D0056901F0C0F9B8
:100A0000281CF8E76060201C38BDC046084D020075
:100A100010B5041CFFF7EAFF201C01F0B1F9201CFF
:100A200010BD000038B5074B041C03604068002867
:100A300004D0056901F0A4F9281CF8E76060201CC7
:100A400038BDC046C84B020010B5041CFFF7EAFFD2
:100A5000201C01F095F9201C10BD000038B5074B93
:100A6000041C03604068002804D0056901F088F97F
:100A7000281CF8E76060201C38BDC046984B020077
:100A800010B5041CFFF7EAFF201C01F079F9201CC7
:100A900010BD000038B5074B041C036040680028F7
:100AA00004D0056901F06CF9281CF8E76060201C8F
:100AB00038BDC046A84B020010B5041CFFF7EAFF82
:100AC000201C01F05DF9201C10BD000038B5074B5B
:100AD000041C03604068002804D0056901F050F947
:100AE000281CF8E76060201C38BDC046B84B0200E7
:100AF00010B5041CFFF7EAFF201C01F041F9201C8F
:100B000010BD000038B5074B041C03604068002886
:100B100004D0056901F034F9281CF8E76060201C56
:100B200038BDC046684C020010B5041CFFF7EAFF50
:100B3000201C01F025F9201C10BD000038B5074B22
:100B4000041C03604068002804D0056901F018F90E
:100B5000281CF8E76060201C38BDC046784C0200B5
:100B600010B5041CFFF7EAFF201C01F009F9201C56
:100B700010BD000038B5074B041C03604068002816
:100B800004D0056901F0FCF8281CF8E76060201C1F
:100B900038BDC046184D020010B5041CFFF7EAFF2F
:100BA000201C01F0EDF8201C10BD000038B5074BEB
:100BB000041C03604068002804D0056901F0E0F8D7
:100BC000281CF8E76060201C38BDC046A84C020015
:100BD00010B5041CFFF7EAFF201C01F0D1F8201C1F
:100BE00010BD00000F4B10B5083303600E4B041C02
:100BF000C3600130FF30FFF76BFD0C4B201CE3603E
:100C0000B830FFF70FFF201CAC30FFF75FFF201C50
:100C1000A030FFF73FFF201C6C30FFF71FFF201CA8
:100C200010BDC046E04D0200904A0200D84B0200C1
:100C300010B5041CFFF7D6FF201C01F0A1F8201C02
:100C400010BD000038B5051CFC35AC6B002C0DD177
:100C5000242001F089F8064B44608361054B8460D1
:100C6000C46004614461C4610360A863A86B38BDBB
:100C7000684C0200484D020038B5051CFC35AC6BD1
:100C8000002C0DD1242001F06FF8064B44608361E5
:100C9000054B8460C46004614461C4610360A8635F
:100CA000A86B38BD684C0200484D0200F7B50379C7
:100CB000071C0E1C151C002B06D00023019300936B
:100CC0000A246B461C7109E000F052FB041C0C2046
:100CD000002C0CD101233B7100940194301CFDF7D2
:100CE000BDFBEB6800906946281C9847201CFEBDA0
:100CF00010B500211F22041C02F071F80023E377D5
:100D000010BD000013B5041C01F0E8FC094B201CC9
:100D100023601830002301A90422019302F056F841
:100D2000019B002B00D0044B6362044B201C23600A
:100D300016BDC046B0530200B1DA0100C85302002C
:100D400008B5FEF73DFC08BD00487047BC2A0020EE
:100D500000487047BC2A0020F0B53D4B3D4A08339F
:100D6000061C0360C2600023A0221636011C4282CA
:100D700085B0041C0371836003748382321C353197
:100D80000023137001328A42FAD180258021C901E3
:100D9000AD00201CF3770A1C358438300093FDF732
:100DA00087FB231C4033211C03935F312A1C002541
:100DB0001D7001338B42FAD1039B201CDD77231C6D
:100DC000603319791A80FC220A409D701A711D72D5
:100DD000214B291CE36625670C22783001F0FFFFC8
:100DE000231C88331D60271C1C4B0837FB67843786
:100DF000291C381C0C2201F0F2FF194B194AFB6028
:100E0000231CA0333D611A60174A5D60DA60174AFF
:100E10001D619A61DD61301CFFF76AFF0398FFF7DF
:100E200067FF134B601CE360231CC4331D705D70AF
:100E30009D70FF30FFF766FF231C0122FE335242F4
:100E40005A85201C023B1D635D639D6305B0F0BDA8
:100E5000E04D0200D84B0200984B020047EC010025
:100E600039EC0100A84B0200B84B0200C84B02004D
:100E7000904A0200314B70B50025041C0E1C036023
:100E800085710583291C0C221C3001F0A8FF2C4B16
:100E9000E562A362231C30331D70201C231DDD87F7
:100EA000291C44300C2201F09AFF264B656523650E
:100EB000254BA6652360231C5C331D705D709D70FF
:100EC000DD70261C251C6035C036281C0021FDF76E
:100ED00033FB0023AB82EB821835B542F5D1A82253
:100EE0005200A618281C0021242201F078FF281C9B
:100EF0002435FEF7D4FFB542F4D1A82300215B00CE
:100F0000E150B422231CFC3352009965D96519665F
:100F100059666C61A150196759679967D967A31819
:100F20005C61C0235B00E018FEF78EFDCA22520010
:100F3000A018FEF7B4FF201C70BDC046E84C0200AC
:100F4000E5F20100F3F20100284D020070B5061C25
:100F5000FC36756B002D1CD1B420800000F004FF1E
:100F60000D4B041C43600D4B856003610C4B4561C8
:100F7000C3610C4B056283620B4BC5620360211C8D
:100F80003430FFF777FFF6235B00E018FDF77AFBBC
:100F90007463706B70BDC046984C0200884C0200B0
:100FA000084D0200184D0200204B0200264B70B580
:100FB0000360264B00258360254B041C4361254BB1
:100FC00005710362244B4571C362C560856145624A
:100FD0000563291C3830FEF737FD201C291C4C30D6
:100FE000FEF732FD201C291C6030FEF72DFD1B4B47
:100FF000251C2360231C7435C433002204C59D4284
:10100000FBD1B22149006618281C002108220835AE
:1010100001F0E5FEB542F7D1C2235B00E2180023E0
:1010200008C59542FBD1C222C32152004900A354F6
:101030006318CB21490062180021198002339342C2
:10104000FAD1201C70BDC046B84C0200784C02009A
:10105000884C0200984C0200A84C0200604B020031
:1010600038B5041CFC34236B002B07D1CC20400086
:1010700000F07AFE051CFFF799FF2563206B38BD51
:1010800038B5041CFC34236B002B07D1CC20400066
:1010900000F06AFE051CFFF789FF2563206B38BD51
:1010A00070B5031C0A1C70CA70C3C9680023C160F4
:1010B000036170BD08B58130FF30FFF7F1FF08BD57
:1010C00030B587B0051CFEF7D1F9041E24D12B1CC6
:1010D0005C33187058709870D870A8235B00E85083
:1010E000EA1801235B4253609360D3601361B4221A
:1010F0005200A850B4225200AA18211C53609360D9
:10110000D360136101A8FEF79FFCC0214900681855
:1011100001A9FFF7C5FF00E00624201C07B030BD81
:1011200010B5054C201CFFF717FE201C0349044A8C
:1011300001F0C4FD10BDC046BC2A0020E50B020032
:101140000028002070DF704771DF704760DF704754
:1011500008B5FCF7E5F908BD08B5FCF7FDFB002074
:1011600008BD0000F0B5041C8BB0FBF7F7FB201C9A
:1011700000F062F90020FFF7EBFD0368061C1B6915
:1011800098473368051C9B69301C98473368019069
:101190005B6A301C9847031C208810380B2800D944
:1011A000DCE002F0B5FA0658DBDBDB97DBDBDB9E2D
:1011B000DBBBA688281C311C277DFDF7DAFE607B8F
:1011C0002B1C5833009018780122904302221043C0
:1011D000A179023B98701878009A013018706B461C
:1011E0001E82D9749F7405A80023694603704B754D
:1011F00069468B756946CB7506A90B7069464B76B7
:1012000069468A7607AACB76137008AA4B778B7744
:10121000CB771370231C1633E11D06226E4609930B
:101220001B3601F0D3FD211C301C0E3106229435F3
:1012300001F0CCFD6B68AB60A868002800D18DE0A0
:10124000C36804A99847AB68002B02D16868A860FE
:10125000F2E71B69EFE7281C4349A788FDF789FEE1
:10126000A179336800911B6A301C9847F62252001E
:10127000061C391C80180622FDF701FB338FBB4288
:1012800004D1736B301C34309B6898472A1C56324B
:101290001378013BDBB21370002B05D12B1C5833A4
:1012A0001A7802218A431A70A035009869686B4643
:1012B0001F829874A960A86800284FD0C36804A949
:1012C0009847AB68002B02D16A68AA60F3E71B69F4
:1012D000AB60F0E75B69A088A11D002B3ED098476A
:1012E0003CE0A679002E05D12B1C58331A78012139
:1012F0008A431A706B6E002B30D01C4A002A2DD006
:10130000AB66A86E002829D0C368311C9847AB6E25
:10131000002B01D16B6EF3E71B69F1E7A37B6846F5
:101320005A07910FDA08677B01700272E11D04A869
:101330000622DE0701F04AFD6B461878197AF60F8F
:10134000187659769F75DE75231C0F3307932B1C77
:101350008C33281C80301B6804A998470198211CF5
:10136000FEF75EFC0BB0F0BDFFFF000061F2010074
:101370001FB5A3238022DB00D205D3580D20DA0746
:1013800000D508201C4948221C4BFCF73BFB0028D9
:101390000BD080B2002808D1BFF34F8F184A194BE9
:1013A000DA60BFF34F8FC046FDE7002302A8029327
:1013B000436001230370FFF7C9FE002801D0072016
:1013C00017E06846FFF7C0FE0028F8D16946FFF72E
:1013D000B9FE0028F3D10C48FCF744FB80B200288A
:1013E00007D10A48FCF748FB80B2002801D100F081
:1013F000E5F805B000BDC046142C002059110200CC
:101400000400FA0500ED00E0651102005111020030
:101410007047000080B2002808D1BFF34F8F044A04
:10142000044BDA60BFF34F8FC046FDE77047C046FC
:101430000400FA0500ED00E07FB5051C0020FFF771
:1014400087FC0368041C1B6998472368201C1B6ADF
:101450009847061C041C288834363038082800D9E0
:101460009AE002F055F905991384212D99486500F9
:10147000EB88002B05D1291C0C31301CFEF772FDC6
:101480008AE0636B301C9B68984785E0EB88002BF3
:1014900005D1291C0C31301CFEF7E6FD7CE0301C28
:1014A0000021FEF7ABFE77E0636B301C5B6898476A
:1014B000002871D0291C0C31301CFEF733FE6BE084
:1014C000AB886A461380AB895380EB8993802B8A63
:1014D00012350295D380A368E360E06800285BD0F2
:1014E000C36869469847E368002B02D1A268E260AE
:1014F000F3E71B69F0E7AB886A461380AB8953803A
:10150000AB7B13712B8AD3806B8A143503951381BF
:101510006369A361A06900283ED0C3686946984703
:10152000A369002B02D16269A261F3E71B69F0E7AE
:10153000AB886A461380AB895380AB7B13712B8ACF
:1015400012350295D380236A002B25D0164A002A33
:1015500022D06362606A00281ED0C368694698473B
:10156000636A002B01D1236AF3E71B69F1E7F622D6
:10157000EB885200A018A988002B05D085225200C4
:10158000934206D1002205E02A1C0C32FDF78AF9AD
:1015900002E00B22FDF773F9301CFEF747FF301C09
:1015A000FEF7C8FE7FBDC04661F2010077DF7047DD
:1015B00078DF70477ADF70477CDF70477FB50023A4
:1015C00002AC03932823134D2380C8235B00638060
:1015D000E38001AE1123281C337001F05BFD291C50
:1015E00082B2301CFFF7E8FF80B200280FD18020C4
:1015F0008000FFF7DDFF80B2002808D1201CFFF734
:10160000D9FF80B2002802D1FFF7D0FF80B204B02A
:1016100070BDC046204E02007EDF704768DF704715
:1016200038B500200C1CFFF793FB03685B6A9847F2
:101630002378051C142B17D002D8132B05D042E0B9
:10164000152B16D0222B38D03DE063686C681888C3
:101650009B78D9079A07C90FDB06C9B2D20F5B0F77
:10166000002C30D0A0472EE0636818889978AB68CA
:101670001FE0626891780B090907090F012902D060
:10168000022908D010E0013BDBB20021022B0ED86A
:101690000E49C95C0BE0012B08D0023B5842434184
:1016A00005215B42194002E0002100E0042110887E
:1016B000EB68002B07D0984705E0636818882B6912
:1016C000002B00D09847002038BDC046264E0200AF
:1016D000014B18787047C0465D2C0020F0B51C1CEB
:1016E0002D4B87B001921A78071C00200D1C8242F6
:1016F00050D1FBF747FF002846D1002C0FD0222005
:1017000003A90394FFF78AFF002808D0082804D013
:1017100011384342584104303CE006203AE00023AF
:101720006846037202A8FAF78FFF011E2CD11B4EE8
:10173000012433782540A3436A0027401D1C3D4304
:10174000019B02270720BD43034015431C22BB40D9
:1017500095431D43357003AD0C22281C01F03FFB5F
:101760000F4B6846311C0522113003932F7101F095
:101770002DFB0C48291CFAF7D9FF031E06D00428BC
:1017800007D00620082B05D00B2003E0024A147076
:1017900000E0072007B0F0BD5D2C002004280020E9
:1017A000211602005C2C002008B50848FBF786F8DB
:1017B0000023984207D0042804D00623082802D02A
:1017C0000B2300E00723181C08BDC0465C2C00203A
:1017D00073B500230193104B01AD1B780E1C291C1F
:1017E0002B70FBF77BFA041E04D00B23052810D1C5
:1017F00004230EE0281C311CFAF7D2FF231C00281A
:1018000007D0042804D00623082802D00B2300E0C8
:101810000723181C76BDC0465C2C002073B5114C04
:101820000D1C061C211C6846052201F0CFFA012D73
:1018300006D0022D13D1237801221343AB4303E0DA
:1018400023780222AB439343301C69462370FFF791
:10185000E3FE421E90410B234042034000E002237E
:10186000181C76BD0428002008B5094B011C1A7805
:101870000923002A09D00748FAF7CAFF0023984233
:1018800003D006230E2800D10323181C08BDC04630
:101890005D2C00205C2C002008B5FBF76EFA08BD1B
:1018A00008B502230B708E230B714F234B710A1C5A
:1018B0007C238B7101320431FBF736FA08BDA2DFBD
:1018C0007047A3DF704763DF704710B586B06C4682
:1018D000073400232370C15C02AA99540133102BF2
:1018E000F9D1101C211CFFF7EEFF0023984200D114
:1018F0002378181C06B010BDF0B5061C3378408A5A
:1019000087B0012203900192002B1DD0254BB71800
:101910001868002202901C1C029B9A4220D01121C0
:101920005143214D00236918981E012804D9C85C31
:101930008446F85C844511D10133102BF4D1112376
:101940005A43AD182D7C019501986B46987505ABEF
:101950005888039A0004104307B0F0BD0132DBE75A
:10196000381CFFF7B2FF3378051C0190002B01D122
:10197000371C123702980428E6D0029A11205043EF
:10198000094E391C3018102201F020FA2368112763
:101990005F430022F6190133B270F2703574236090
:1019A000D2E7C046602C0020642C0020F0B599B02E
:1019B0001E1C1EAB019102CB69461B881F3102938E
:1019C00020AB1B8809AC039321AB1B780A700493EE
:1019D00023AB1D8824AB1B780122059325AB1B7814
:1019E000071C201C069301F0F1F9227830231A42DB
:1019F00011D00AAC00210322201C01F0F0F9A378D9
:101A000006229343022213431022A370111C0123C8
:101A100019432170617011AC00211C22201C01F0BF
:101A2000DEF909AB1A783021227000230A4200D077
:101A30000AAB6361002D05D0229B002B02D06360AE
:101A4000258165810BAC002305982380069901232D
:101A500018401940C0000901C0B208430499194058
:101A6000022303430B43A37032231A421ED0701E7D
:101A700004281BD821780F23994301F049FE030560
:101A8000070C1100012007E001200AE001200143BA
:101A90000B40302108E0022001430B40102103E0FD
:101AA000022001430B4020210B4323700C231A42D8
:101AB0001ED0701E04281BD862780F239A4301F0B1
:101AC00027FE0305070C1100012107E001210AE0B0
